:100000000C9464000C948C000C948C000C948C0068
:100010000C948C000C948C000C948C000C948C0030
:100020000C948C000C948C000C948C000C948C0020
:100030000C948C000C948C000C948C000C948C0010
:100040000C94F4050C948C000C94B3080C94E50803
:100050000C948C000C948C000C948C000C948C00F0
:100060000C94C7040C948C000000000800020100EE
:100070000003040700000000000000000000000171
:10008000020408102040800102040810200102042C
:100090000810204080400404040404040404020204
:1000A000020202020303030303030202030000002F
:1000B00000250028002B0000000000240027002A53
:1000C0000000B102FB03150911241FBECFEFD8E0D9
:1000D000DEBFCDBF11E0A0E0B1E0E2E8F5E102C093
:1000E00005900D92A035B107D9F722E0A0E5B1E067
:1000F00001C01D92A03CB207E1F710E0C8ECD0E0CF
:1001000004C02297FE010E94BB0AC23CD107C9F776
:100110000E94530A0C94BF0A0C940000DC01ED917C
:10012000FC910190F081E02D0994CF92EF920F9312
:10013000FC01603D87E0780710F0605D77406083E8
:10014000418322830383E482C5820F91EF90CF9095
:1001500008951F93CF93DF93EC0168E670E08AE582
:1001600091E00E947F0360E08AE591E00E943603FF
:100170002D811AE0822F612F0E94630A682F660F7B
:10018000680F660F620F8AE591E00E9436032C81AA
:10019000822F612F0E94630A682F660F680F660F17
:1001A000620F8AE591E00E9436032B81822F612F36
:1001B0000E94630A682F660F680F660F620F8AE558
:1001C00091E00E94360360E08AE591E00E943603E8
:1001D0002A81822F612F0E94630A682F660F680FA1
:1001E000660F620F8AE591E00E9436032981822F13
:1001F000612F0E94630A682F660F680F660F620FF7
:100200008AE591E00E9436032881822F612F0E94A7
:10021000630A682F660F680F660F620F8AE591E028
:100220000E9436038AE591E0DF91CF911F910C94F3
:10023000F803CF92DF92EF92FF920F931F93CF9329
:10024000DF93EC0168E670E08AE591E00E947F03AD
:1002500060E08AE591E00E9436038AE591E00E9421
:10026000F80347E050E068E670E08AE591E00E941C
:10027000F5038AE591E00E94E6028F77982F929528
:100280009F701AEF082F919F000D11248AE591E0CD
:100290000E94E6029C013327A4E035952795AA9594
:1002A000E1F7F82E129FF00C11248AE591E00E94EC
:1002B000E6029C013327B4E035952795BA95E1F71E
:1002C000E82E129FE00C11248AE591E00E94E602DC
:1002D0008AE591E00E94E6029C01332794E035957F
:1002E00027959A95E1F7D82E129FD00C11248AE514
:1002F00091E00E94E6029C01332744E03595279562
:100300004A95E1F7C82E129FC00C11248AE591E0AE
:100310000E94E6029C01332754E0359527955A95B3
:10032000E1F7129F800D11248883C982DA82EB8263
:10033000FC820D83CE01DF91CF911F910F91FF9031
:10034000EF90DF90CF900895CF92EF920F93CF93DD
:10035000DF9300D000D000D0CDB7DEB761E0809150
:1003600006010E94FF0661E0809102010E94FF06E3
:1003700061E0809104010E94FF0626E040E855E21A
:1003800060E070E083E292E00E94510868E670E06D
:100390008AE591E00E947F0367E070E08AE591E0E2
:1003A0000E948E0060E170E08AE591E00E948E007C
:1003B0008AE591E00E94F803CC24C394E12C04E187
:1003C0002BE14BE06FED77E0CE0101960E949500A6
:1003D000CE0101960E94A90026960FB6F894DEBFC2
:1003E0000FBECDBFDF91CF910F91EF90CF900895C9
:1003F000CF92DF92EF92FF920F931F93CF93DF93F1
:1004000000D000D000D0CDB7DEB7CE0101960E945B
:1004100019018091500190915101892B09F04DC033
:100420008C812D8130E094E6899F200D311D1124AF
:100430003093010120930001C90168EE73E00E942E
:10044000830A7093590160935801C90164E670E012
:100450000E94830A7093570160935601C9016AE0B4
:1004600070E00E94830A70935501609354013093A9
:100470005301209352014AE050E0B90183E292E037
:100480000E943A0A8091000190910101803CA3E012
:100490009A072CF0909353018093520104C010925C
:1004A000530110925201609152017091530142E048
:1004B00050E083E292E00E943A0A32E5E32E31E016
:1004C000F32ECC24C394D12C00E010E0C601002E02
:1004D00002C0880F991F0A94E2F7D701ED91FC91B1
:1004E000EE0FFF1FE85FFE4F2081318182239323AF
:1004F00061E0892B09F460E0809102010E943807D5
:1005000061E0809104010E94380760E0809104015D
:100510000E9438070F5F1F4F0D301105B9F6B2E08A
:10052000EB0EF11C2AE5E21621E0F20669F661E025
:10053000809106010E94380764EF71E080E090E04E
:100540000E94610626960FB6F894DEBF0FBECDBF9F
:10055000DF91CF911F910F91FF90EF90DF90CF909F
:1005600008952091000130910101EAE0F0E0C90115
:10057000BF010E94830A9093530180935201CB01E3
:10058000BF010E94830A9093550180935401C901D1
:1005900064E670E00E94830ACB01BF010E94830AD7
:1005A0009093570180935601C90168EE73E00E9451
:1005B000830A7093590160935801089580918A01CC
:1005C00090E020918B01821B9109089520918B016D
:1005D00080918A01281750F4E22FF0E0E457FE4F93
:1005E000808190E02F5F20938B0108958FEF9FEF24
:1005F0000895E0918B0180918A01E81730F4F0E0D2
:10060000E457FE4F808190E008958FEF9FEF0895AB
:100610000895CF92DF92EF92FF920F931F93CF93A3
:10062000DF937C01CB018A0120916601222389F0AE
:10063000EB016B01C40ED51ECC15DD0569F0699187
:10064000D701ED91FC910190F081E02DC701099552
:10065000F3CF642F0E949E04C801DF91CF911F91B8
:100660000F91FF90EF90DF90CF900895CF93DF939D
:100670001F92CDB7DEB76983209166012223D1F0A6
:1006800020916701203240F021E030E0FC0133830B
:10069000228380E090E015C080916801E82FF0E0AF
:1006A000E759FE4F998190838F5F80936801809313
:1006B000670105C061E0CE0101960E949E0481E0C1
:1006C00090E00F90DF91CF910895FC011382128288
:1006D00048EE53E060E070E044835583668377839F
:1006E00082E291E091838083089581E080936601A6
:1006F00060938901109268011092670108950C942B
:1007000075030F93062F21E04091670169E671E0C0
:10071000809189010E94470410926801109267013C
:10072000109266010F9108958F929F92AF92BF929F
:10073000CF92DF92EF92FF920F931F93CF93DF93AD
:10074000EC01F62ED42E48015901EE2019F10E9439
:1007500075031E2D143008F013E01150B8F0E88135
:10076000F98128E0129FB0011124A501940104C071
:1007700056954795379527956A95D2F7CA01B901DD
:100780000190F081E02DCE010995E7CF60E0CE0128
:100790000E9481034D2D413208F040E22C2D6CE87F
:1007A00071E08F2D0E94FF0310928B0180938A01CC
:1007B000DF91CF911F910F91FF90EF90DF90CF903D
:1007C000BF90AF909F908F900895CF92EF920F932C
:1007D0001F93C22EE12C00E010E098010E949403C8
:1007E0001F910F91EF90CF90089521E00C94E503B5
:1007F00061E00C9481038AE591E00C946503413239
:1008000008F043C0909119029111FCCF91E09093B0
:100810001902209317022FEF2093AC011092F101DF
:10082000240F2093F0019093180290911802880FE2
:10083000892B8093180280911602813061F4109206
:100840001602809118028093BB008091BC0083FD4A
:10085000F8CF85EC01C085EE8093BC008091190231
:100860008130E1F38091F101841710F44091F1019E
:1008700022EF31E0FB01D9018A2F821B841718F483
:100880008D918193F9CF842F089580E008950F937F
:10089000413208F04AC0909119029111FCCF92E0C8
:1008A00090931902009317029FEF9093AC0110925E
:1008B000F1014093F001FB0162EF71E0DB019A2F3F
:1008C000961B941718F491919D93F9CF10921802EA
:1008D00090911802880F892B80931802809116023C
:1008E000813061F410921602809118028093BB004F
:1008F0008091BC0083FDF8CF85EC01C085EE80932C
:10090000BC00222321F0809119028230E1F3809112
:10091000AC018F3F61F08091AC01803251F0809149
:10092000AC01803341F483E007C081E005C080E082
:1009300003C082E001C084E00F910895613298F411
:1009400020911902243089F46093CE01FC0180EDDE
:1009500091E0DC012A2F281B261718F421912D93F2
:10096000F9CF80E0089581E0089582E0089585ED53
:100970008093BC008091BC0084FDFCCF10921902D2
:10098000089585EC8093BC001092190208951F927F
:100990000F920FB60F9211242F933F934F935F93B3
:1009A0006F937F938F939F93AF93BF93EF93FF9337
:1009B0008091B900887F803609F49EC078F588322E
:1009C00009F45DC090F4803109F456C038F48823EE
:1009D00009F4F5C0883009F44FC0F5C0883109F436
:1009E0004EC0803209F45FC0EEC0803409F46AC0A2
:1009F00058F4803309F457C0883309F0E4C0809379
:100A0000AC010E94C104DFC0803509F44FC08835B5
:100A100009F45DC0883409F0D6C0D3C0883909F420
:100A2000C4C0A8F4883709F467C038F4883609F4DC
:100A300063C0803709F460C0C6C0883809F4B5C007
:100A4000803909F45FC0803809F0BDC05BC0803BCD
:100A500009F483C038F4803A09F466C0883A09F48E
:100A60007CC0B1C0803C09F4A4C0883C09F4A1C09A
:100A7000883B09F487C0A7C08091180210C09091EC
:100A8000F1018091F001981770F5E091F10181E09A
:100A90008E0F8093F101F0E0EE50FE4F8081809345
:100AA000BB0085EC83C08093AC018BC0E091F10169
:100AB00081E08E0F8093F1018091BB00F0E0EE5059
:100AC000FE4F80839091F1018091F0016BC0E09125
:100AD000F10181E08E0F8093F1018091BB00F0E085
:100AE000EE50FE4F80838091170281116AC081E031
:100AF0008093160284EA5EC083E08093190210920C
:100B0000AD01CFCF8091AD01803208F04EC0E091B1
:100B1000AD0181E08E0F8093AD018091BB00F0E0CC
:100B2000E255FE4F8083BDCF0E94C1048091AD018C
:100B3000803230F4E091AD01F0E0E255FE4F1082DA
:100B40006091AD0170E0E0911202F09113028EEA23
:100B500091E009951092AD0136C084E080931902AE
:100B60001092CF011092CE01E0911402F091150283
:100B700009958091CE01811105C081E08093CE015D
:100B80001092D001E091CF0181E08E0F8093CF01D0
:100B9000F0E0E053FE4F80818093BB009091CF0145
:100BA0008091CE01981708F47CCF85E88093BC0033
:100BB0000AC085EC8093BC001092190204C0109208
:100BC000AC010E94B704FF91EF91BF91AF919F914B
:100BD0008F917F916F915F914F913F912F910F90E6
:100BE0000FBE0F901F9018951F920F920FB60F9285
:100BF00011242F933F938F939F93AF93BF93809133
:100C00001B0290911C02A0911D02B0911E02309116
:100C10001A0223E0230F2D3720F40196A11DB11DE8
:100C200005C026E8230F0296A11DB11D20931A02CC
:100C300080931B0290931C02A0931D02B0931E028E
:100C400080911F0290912002A0912102B091220276
:100C50000196A11DB11D80931F0290932002A093C5
:100C60002102B0932202BF91AF919F918F913F914A
:100C70002F910F900FBE0F901F9018953FB7F894CB
:100C800080911F0290912002A0912102B091220236
:100C900026B5A89B05C02F3F19F00196A11DB11DD7
:100CA0003FBF6627782F892F9A2F620F711D811DF4
:100CB000911D42E0660F771F881F991F4A95D1F753
:100CC00008958F929F92AF92BF92CF92DF92EF9250
:100CD000FF926B017C010E943E064B015C01C11436
:100CE000D104E104F104F1F00E94620A0E943E0680
:100CF000681979098A099B09683E73408105910545
:100D000070F321E0C21AD108E108F10888EE880EDC
:100D100083E0981EA11CB11CC114D104E104F104AC
:100D200029F7DDCFFF90EF90DF90CF90BF90AF908D
:100D30009F908F900895789484B5826084BD84B527
:100D4000816084BD85B5826085BD85B5816085BDC6
:100D5000EEE6F0E0808181608083E1E8F0E01082DF
:100D6000808182608083808181608083E0E8F0E020
:100D7000808181608083E1EBF0E08081846080830A
:100D8000E0EBF0E0808181608083EAE7F0E0808141
:100D900084608083808182608083808181608083A1
:100DA0008081806880831092C1000895833081F033
:100DB00028F4813099F08230A1F008958730A9F0AD
:100DC0008830B9F08430D1F4809180008F7D03C0E9
:100DD000809180008F7780938000089584B58F770D
:100DE00002C084B58F7D84BD08958091B0008F7757
:100DF00003C08091B0008F7D8093B0000895CF93A1
:100E0000DF9390E0FC01E158FF4F2491FC01EA568A
:100E1000FF4F8491882349F190E0880F991FFC01CE
:100E2000E954FF4FA591B49183559F4FFC01C591A3
:100E3000D4919FB7611108C0F8948C9120958223BA
:100E40008C93888182230AC0623051F4F8948C918B
:100E5000322F309583238C938881822B888304C022
:100E6000F8948C91822B8C939FBFDF91CF91089542
:100E70000F931F93CF93DF931F92CDB7DEB7282F29
:100E800030E0F901E859FF4F8491F901E158FF4F33
:100E90001491F901EA56FF4F04910023C9F0882309
:100EA00021F069830E94D6066981E02FF0E0EE0F01
:100EB000FF1FE355FF4FA591B4919FB7F8948C9114
:100EC000611103C01095812301C0812B8C939FBFBA
:100ED0000F90DF91CF911F910F910895FC01818DAB
:100EE000228D90E0805C9F4F821B91098F73992720
:100EF0000895FC01918D828D981731F0828DE80F55
:100F0000F11D858D90E008958FEF9FEF0895FC010E
:100F1000918D828D981761F0828DDF01A80FB11D30
:100F20005D968C91928D9F5F9F73928F90E0089554
:100F30008FEF9FEF08958BE099E0892B49F080E0D7
:100F400090E0892B29F00E940B0981110C9400007C
:100F50000895FC01848DDF01A80FB11DA35ABF4F76
:100F60002C91848D90E001968F739927848FA689A8
:100F7000B7892C93A089B1898C9180648C93938DCF
:100F8000848D981306C00288F389E02D80818F7DBF
:100F900080830895CF93DF93EC01888D8823C9F077
:100FA000EA89FB89808185FD05C0A889B9898C9172
:100FB00086FD0FC00FB607FCF5CF808185FFF2CF0D
:100FC000A889B9898C9185FFEDCFCE010E94A90730
:100FD000E7CFDF91CF910895CF92DF92FF920F93E9
:100FE0001F93CF93DF931F92CDB7DEB76C0181E0E3
:100FF000D60158968C9358975B969C915B975C961C
:101000008C915C97981307C05096ED91FC91519785
:10101000808185FD2EC0F601038D10E00F5F1F4F0C
:101020000F731127F02EF601848DF81211C00FB640
:1010300007FCF9CFD6015096ED91FC915197808134
:1010400085FFF1CFC60169830E94A9076981EBCFB3
:10105000838DE80FF11DE35AFF4F6083D6015B9645
:101060000C935B975296ED91FC915397808180622F
:101070000CC0D6015696ED91FC915797608350961F
:10108000ED91FC91519780818064808381E090E0B4
:101090000F90DF91CF911F910F91FF90DF90CF9034
:1010A0000895BF92CF92DF92EF92FF92CF93DF939A
:1010B000EC016A017B01B22EE889F98982E0808324
:1010C000411581EE580761057105A1F060E079E0F6
:1010D0008DE390E0A70196010E94970A2150310903
:1010E000410951095695479537952795211580E176
:1010F000380798F0E889F989108260E874E88EE191
:1011000090E0A70196010E94970A215031094109F8
:1011100051095695479537952795EC85FD85308380
:10112000EE85FF852083188EEC89FD89B082EA89DF
:10113000FB89808180618083EA89FB898081886066
:101140008083EA89FB89808180688083EA89FB89C2
:1011500080818F7D8083DF91CF91FF90EF90DF9032
:10116000CF90BF9008951F920F920FB60F92112447
:101170002F938F939F93EF93FF93E0913302F0911E
:1011800034028081E0913902F0913A0282FD12C06E
:10119000908180913C028F5F8F7320913D02821776
:1011A00051F0E0913C02F0E0ED5DFD4F958F8093B2
:1011B0003C0201C08081FF91EF919F918F912F910F
:1011C0000F900FBE0F901F9018951F920F920FB6A1
:1011D0000F9211242F933F934F935F936F937F93BD
:1011E0008F939F93AF93BF93EF93FF9383E292E02C
:1011F0000E94A907FF91EF91BF91AF919F918F91AD
:101200007F916F915F914F913F912F910F900FBE02
:101210000F901F90189583E292E00E946E0721E0E4
:10122000892B09F420E0822F089510922602109253
:10123000250288EE93E0A0E0B0E08093270290932F
:101240002802A0932902B0932A0282E391E09093AE
:1012500024028093230285EC90E0909330028093E7
:101260002F0284EC90E0909332028093310280EC64
:1012700090E0909334028093330281EC90E090935D
:1012800036028093350282EC90E09093380280938E
:10129000370286EC90E090933A02809339021092E4
:1012A0003C0210923D0210923E0210923F020895BD
:1012B000CF92DF92EF92FF920F931F93CF93DF9322
:1012C0007C016A01EB0100E010E00C151D0571F0D6
:1012D0006991D701ED91FC910190F081E02DC7015A
:1012E0000995892B19F00F5F1F4FEFCFC801DF91D0
:1012F000CF911F910F91FF90EF90DF90CF900895C5
:101300006115710581F0DB010D900020E9F7AD0159
:1013100041505109461B570BDC01ED91FC910280B5
:10132000F381E02D099480E090E00895DC01ED91D7
:10133000FC910190F081E02D09946EE371E00C9432
:1013400080098F929F92AF92BF92DF92EF92FF92AD
:101350000F931F93CF93DF93CDB7DEB7A1970FB64F
:10136000F894DEBF0FBECDBF7C01F42FD52ECB018C
:1013700019A2223008F42AE08E010F5D1F4F822E41
:10138000912CA12CB12C6F2F7D2DA50194010E94D1
:10139000970AF22FD32ECA01015011096A3014F4B2
:1013A000E0E301C0E7E3E60FD801EC93232B242B05
:1013B000252B49F7B801C7010E948009A1960FB6F5
:1013C000F894DEBF0FBECDBFDF91CF911F910F917B
:1013D000FF90EF90DF90BF90AF909F908F90089517
:1013E000CF92DF92EF92FF920F931F93CF93DF93F1
:1013F000EC016A017B012115310579F4E881F9815D
:101400000190F081E02D642FDF91CF911F910F911A
:10141000FF90EF90DF90CF9009942A303105E9F4E6
:1014200077FF1AC06DE20E9496098C014427552768
:10143000BA014C195D096E097F092AE0CE010E94AC
:10144000A109800F911FDF91CF911F910F91FF9004
:10145000EF90DF90CF9008952AE0B701A601CE016A
:10146000DF91CF911F910F91FF90EF90DF90CF9080
:101470000C94A1090F931F93CF93DF93EC019A0172
:10148000AB01662757FD6095762F0E94F0098C010D
:10149000CE010E949D09800F911FDF91CF911F9176
:1014A0000F91089508950E949B060E94520A0E947F
:1014B000A401CBE9D7E00E94F8012097E1F30E9454
:1014C0009B07F9CF0895991B79E004C0991F9617DF
:1014D00008F0961B881F7A95C9F780950895AA1B76
:1014E000BB1B51E107C0AA1FBB1FA617B70710F00F
:1014F000A61BB70B881F991F5A95A9F78095909541
:10150000BC01CD01089597FB072E16F4009407D077
:1015100077FD09D00E946F0A07FC05D03EF4909534
:1015200081959F4F0895709561957F4F0895A1E231
:101530001A2EAA1BBB1BFD010DC0AA1FBB1FEE1F4D
:10154000FF1FA217B307E407F50720F0A21BB30B98
:10155000E40BF50B661F771F881F991F1A9469F714
:1015600060957095809590959B01AC01BD01CF0170
:101570000895EE0FFF1F0590F491E02D0994F89463
:02158000FFCF9B
:10158200D2040B000C000A00FE1FC0077D1FF11FD2
:10159200C717F71DFF1DC01FFF1FF71F0000000028
:1015A200000036030903DE02E602F9020803000026
:1015B2000000EC0758096E0787077907CA070D0A6A
:1015C200006E616E00696E66006F7666002E000026
:00000001FF
