:100000000C9464000C948C000C948C000C948C0068
:100010000C948C000C948C000C948C000C948C0030
:100020000C948C000C948C000C948C000C948C0020
:100030000C948C000C948C000C948C000C948C0010
:100040000C9457050C948C000C9416080C944808DA
:100050000C948C000C948C000C948C000C948C00F0
:100060000C942A040C948C0000000008000201008B
:100070000003040700000000000000000000000171
:10008000020408102040800102040810200102042C
:100090000810204080400404040404040404020204
:1000A000020202020303030303030202030000002F
:1000B00000250028002B0000000000240027002A53
:1000C000000014025E03780811241FBECFEFD8E0B1
:1000D000DEBFCDBF11E0A0E0B1E0E0EAF3E102C095
:1000E00005900D92A035B107D9F722E0A0E5B1E067
:1000F00001C01D92AE3BB207E1F710E0C8ECD0E0C2
:1001000004C02297FE010E94CA09C23CD107C9F768
:100110000E946E090C94CE090C940000DC01ED9154
:10012000FC910190F081E02D0994CF92DF92EF9243
:10013000FF920F931F93CF93DF93EC0168E670E07B
:1001400088E591E00E94E20260E088E591E00E948B
:10015000990288E591E00E945B0347E050E068E681
:1001600070E088E591E00E94580388E591E00E94E4
:1001700049028F77982F92959F701AEF082F919FC1
:10018000000D112488E591E00E9449029C0133276B
:10019000A4E035952795AA95E1F7F82E129FF00C6B
:1001A000112488E591E00E9449029C013327B4E0C4
:1001B00035952795BA95E1F7E82E129FE00C1124AA
:1001C00088E591E00E94490288E591E00E94490299
:1001D0009C01332794E0359527959A95E1F7D82E21
:1001E000129FD00C112488E591E00E9449029C01E5
:1001F000332744E0359527954A95E1F7C82E129F9D
:10020000C00C112488E591E00E9449029C0133272B
:1002100054E0359527955A95E1F7129F800D1124EA
:100220008883C982DA82EB82FC820D83CE01DF9162
:10023000CF911F910F91FF90EF90DF90CF90089595
:1002400061E0809108010E94620661E080910401F2
:100250000E94620661E0809106010E94620626E02B
:1002600040E855E260E070E081E292E00E94B4076D
:1002700068E670E088E591E00E94E20267E070E0E5
:1002800088E591E00E948E0060E170E088E591E0F1
:100290000E948E0088E591E00C945B03CF92DF9280
:1002A000EF92FF920F931F93CF93DF9300D000D074
:1002B00000D0CDB7DEB7CE0101960E9495006981CE
:1002C00070E06053784F4AE050E081E292E00E9493
:1002D00067096FE281E292E00E94F9084AE050E08B
:1002E0006A8181E292E00E9460096FE281E292E01D
:1002F0000E94F9084AE050E06B8181E292E00E949E
:10030000600960E281E292E00E94F9084AE050E070
:100310006C8181E292E00E9460096AE381E292E0EE
:100320000E94F9084AE050E06D8181E292E00E946B
:1003300060096AE381E292E00E94F9084AE050E035
:100340006E8181E292E00E94600981E292E00E9467
:10035000000981E292E00E940009809100019091E1
:100360000101009729F4109255011092540108C020
:10037000019731F489E090E0909355018093540106
:1003800030E5E32E31E0F32ECC24C394D12C00E0F1
:1003900010E0C601002E02C0880F991F0A94E2F7F0
:1003A000D701ED91FC91EE0FFF1FE65FFE4F20811C
:1003B00031818223932361E0892B09F460E08091ED
:1003C00004010E949B0661E0809106010E949B0649
:1003D00060E0809106010E949B060F5F1F4F0D3069
:1003E0001105B9F6B2E0EB0EF11C88E5E81681E0E4
:1003F000F80669F661E0809108010E949B0664EFAF
:1004000071E080E090E00E94C40526960FB6F89453
:10041000DEBF0FBECDBFDF91CF911F910F91FF9037
:10042000EF90DF90CF900895209102013091030169
:10043000EAE0F0E0C901BF010E94920990935101E6
:1004400080935001CB01BF010E9492099093530108
:1004500080935201C90164E670E00E949209CB01C9
:10046000BF010E9492099093550180935401C901E4
:1004700068EE73E00E9492097093570160935601F1
:1004800008958091880190E020918901821B910953
:1004900008952091890180918801281750F4E22F56
:1004A000F0E0E657FE4F808190E02F5F20938901B6
:1004B00008958FEF9FEF0895E09189018091880161
:1004C000E81730F4F0E0E657FE4F808190E00895A1
:1004D0008FEF9FEF08950895CF92DF92EF92FF92F2
:1004E0000F931F93CF93DF937C01CB018A0120915F
:1004F0006401222389F0EB016B01C40ED51ECC15DB
:10050000DD0569F06991D701ED91FC910190F081D1
:10051000E02DC7010995F3CF642F0E940104C801A3
:10052000DF91CF911F910F91FF90EF90DF90CF90CF
:100530000895CF93DF931F92CDB7DEB769832091E3
:1005400064012223D1F020916501203240F021E0A6
:1005500030E0FC013383228380E090E015C080917D
:100560006601E82FF0E0E959FE4F998190838F5F93
:10057000809366018093650105C061E0CE0101961C
:100580000E94010481E090E00F90DF91CF910895E7
:10059000FC011382128248EE53E060E070E0448375
:1005A00055836683778382E291E091838083089507
:1005B00081E080936401609387011092660110923C
:1005C000650108950C94D8020F93062F21E0409105
:1005D000650167E671E0809187010E94AA0310928D
:1005E000660110926501109264010F9108958F9237
:1005F0009F92AF92BF92CF92DF92EF92FF920F93B2
:100600001F93CF93DF93EC01F62ED42E48015901AE
:10061000EE2019F10E94D8021E2D143008F013E0CC
:100620001150B8F0E881F98128E0129FB00111243F
:10063000A501940104C056954795379527956A956D
:10064000D2F7CA01B9010190F081E02DCE010995E0
:10065000E7CF60E0CE010E94E4024D2D413208F068
:1006600040E22C2D6AE871E08F2D0E946203109207
:10067000890180938801DF91CF911F910F91FF90A5
:10068000EF90DF90CF90BF90AF909F908F900895A4
:10069000CF92EF920F931F93C22EE12C00E010E057
:1006A00098010E94F7021F910F91EF90CF9008954B
:1006B00021E00C94480361E00C94E40288E591E0A9
:1006C0000C94C802413208F043C090911702911176
:1006D000FCCF91E090931702209315022FEF209307
:1006E000AA011092EF01240F2093EE0190931602BD
:1006F00090911602880F892B809316028091140224
:10070000813061F410921402809116028093BB0034
:100710008091BC0083FDF8CF85EC01C085EE80930D
:10072000BC00809117028130E1F38091EF018417C2
:1007300010F44091EF0120EF31E0FB01D9018A2F45
:10074000821B841718F48D918193F9CF842F08951B
:1007500080E008950F93413208F04AC0909117024B
:100760009111FCCF92E090931702009315029FEF36
:100770009093AA011092EF014093EE01FB0160EF0C
:1007800071E0DB019A2F961B941718F491919D93B9
:10079000F9CF1092160290911602880F892B809340
:1007A000160280911402813061F41092140280913B
:1007B00016028093BB008091BC0083FDF8CF85ECCE
:1007C00001C085EE8093BC00222321F080911702A6
:1007D0008230E1F38091AA018F3F61F08091AA01FC
:1007E000803251F08091AA01803341F483E007C048
:1007F00081E005C080E003C082E001C084E00F9189
:100800000895613298F420911702243089F460939E
:10081000CC01FC018EEC91E0DC012A2F281B26176D
:1008200018F421912D93F9CF80E0089581E0089587
:1008300082E0089585ED8093BC008091BC0084FD2A
:10084000FCCF10921702089585EC8093BC001092A3
:10085000170208951F920F920FB60F9211242F9333
:100860003F934F935F936F937F938F939F93AF9338
:10087000BF93EF93FF938091B900887F803609F48E
:100880009EC078F5883209F45DC090F4803109F497
:1008900056C038F4882309F4F5C0883009F44FC0F5
:1008A000F5C0883109F44EC0803209F45FC0EEC053
:1008B000803409F46AC058F4803309F457C088338F
:1008C00009F0E4C08093AA010E942404DFC08035AF
:1008D00009F44FC0883509F45DC0883409F0D6C0EA
:1008E000D3C0883909F4C4C0A8F4883709F467C0B4
:1008F00038F4883609F463C0803709F460C0C6C094
:10090000883809F4B5C0803909F45FC0803809F02F
:10091000BDC05BC0803B09F483C038F4803A09F461
:1009200066C0883A09F47CC0B1C0803C09F4A4C018
:10093000883C09F4A1C0883B09F487C0A7C0809116
:10094000160210C09091EF018091EE01981770F59A
:10095000E091EF0181E08E0F8093EF01F0E0E05134
:10096000FE4F80818093BB0085EC83C08093AA01F9
:100970008BC0E091EF0181E08E0F8093EF018091B9
:10098000BB00F0E0E051FE4F80839091EF01809139
:10099000EE016BC0E091EF0181E08E0F8093EF01DB
:1009A0008091BB00F0E0E051FE4F80838091150202
:1009B00081116AC081E08093140284EA5EC083E002
:1009C000809317021092AB01CFCF8091AB018032A0
:1009D00008F04EC0E091AB0181E08E0F8093AB0137
:1009E0008091BB00F0E0E455FE4F8083BDCF0E94B4
:1009F00024048091AB01803230F4E091AB01F0E04F
:100A0000E455FE4F10826091AB0170E0E09110025E
:100A1000F09111028CEA91E009951092AB0136C079
:100A200084E0809317021092CD011092CC01E091E6
:100A30001202F091130209958091CC01811105C039
:100A400081E08093CC011092CE01E091CD0181E054
:100A50008E0F8093CD01F0E0E253FE4F80818093B2
:100A6000BB009091CD018091CC01981708F47CCF08
:100A700085E88093BC000AC085EC8093BC0010928E
:100A8000170204C01092AA010E941A04FF91EF916C
:100A9000BF91AF919F918F917F916F915F914F9196
:100AA0003F912F910F900FBE0F901F9018951F929E
:100AB0000F920FB60F9211242F933F938F939F9312
:100AC000AF93BF938091190290911A02A0911B02DB
:100AD000B0911C023091180223E0230F2D3720F42F
:100AE0000196A11DB11D05C026E8230F0296A11D88
:100AF000B11D209318028093190290931A02A093BB
:100B00001B02B0931C0280911D0290911E02A091C5
:100B10001F02B09120020196A11DB11D80931D02FC
:100B200090931E02A0931F02B0932002BF91AF9139
:100B30009F918F913F912F910F900FBE0F901F901B
:100B400018953FB7F89480911D0290911E02A091D4
:100B50001F02B091200226B5A89B05C02F3F19F0B7
:100B60000196A11DB11D3FBF6627782F892F9A2FAF
:100B7000620F711D811D911D42E0660F771F881F56
:100B8000991F4A95D1F708958F929F92AF92BF9285
:100B9000CF92DF92EF92FF926B017C010E94A10540
:100BA0004B015C01C114D104E104F104F1F00E9495
:100BB0007D090E94A105681979098A099B09683E87
:100BC00073408105910570F321E0C21AD108E10854
:100BD000F10888EE880E83E0981EA11CB11CC11498
:100BE000D104E104F10429F7DDCFFF90EF90DF900D
:100BF000CF90BF90AF909F908F900895789484B5D8
:100C0000826084BD84B5816084BD85B5826085BD08
:100C100085B5816085BDEEE6F0E0808181608083EE
:100C2000E1E8F0E0108280818260808380818160D1
:100C30008083E0E8F0E0808181608083E1EBF0E098
:100C4000808184608083E0EBF0E08081816080833C
:100C5000EAE7F0E080818460808380818260808325
:100C60008081816080838081806880831092C10050
:100C70000895833081F028F4813099F08230A1F01A
:100C800008958730A9F08830B9F08430D1F480918C
:100C900080008F7D03C0809180008F7780938000DB
:100CA000089584B58F7702C084B58F7D84BD089583
:100CB0008091B0008F7703C08091B0008F7D8093CA
:100CC000B0000895CF93DF9390E0FC01E158FF4F0F
:100CD0002491FC01EA56FF4F8491882349F190E06A
:100CE000880F991FFC01E954FF4FA591B4918355DA
:100CF0009F4FFC01C591D4919FB7611108C0F89432
:100D00008C91209582238C93888182230AC0623043
:100D100051F4F8948C91322F309583238C938881F1
:100D2000822B888304C0F8948C91822B8C939FBF74
:100D3000DF91CF9108950F931F93CF93DF931F926D
:100D4000CDB7DEB7282F30E0F901E859FF4F849185
:100D5000F901E158FF4F1491F901EA56FF4F049150
:100D60000023C9F0882321F069830E943906698134
:100D7000E02FF0E0EE0FFF1FE355FF4FA591B49178
:100D80009FB7F8948C91611103C01095812301C025
:100D9000812B8C939FBF0F90DF91CF911F910F916B
:100DA0000895FC01818D228D90E0805C9F4F821B15
:100DB00091098F7399270895FC01918D828D981761
:100DC00031F0828DE80FF11D858D90E008958FEF51
:100DD0009FEF0895FC01918D828D981761F0828DAF
:100DE000DF01A80FB11D5D968C91928D9F5F9F735F
:100DF000928F90E008958FEF9FEF08958EE698E030
:100E0000892B49F080E090E0892B29F00E946E0840
:100E100081110C9400000895FC01848DDF01A80F5E
:100E2000B11DA35ABF4F2C91848D90E001968F7312
:100E30009927848FA689B7892C93A089B1898C9131
:100E400080648C93938D848D981306C00288F389F7
:100E5000E02D80818F7D80830895CF93DF93EC0117
:100E6000888D8823C9F0EA89FB89808185FD05C0CA
:100E7000A889B9898C9186FD0FC00FB607FCF5CF04
:100E8000808185FFF2CFA889B9898C9185FFEDCF4C
:100E9000CE010E940C07E7CFDF91CF910895CF924A
:100EA000DF92FF920F931F93CF93DF931F92CDB7E3
:100EB000DEB76C0181E0D60158968C9358975B960B
:100EC0009C915B975C968C915C97981307C05096A9
:100ED000ED91FC915197808185FD2EC0F601038D27
:100EE00010E00F5F1F4F0F731127F02EF601848D56
:100EF000F81211C00FB607FCF9CFD6015096ED914C
:100F0000FC915197808185FFF1CFC60169830E94D2
:100F10000C076981EBCF838DE80FF11DE35AFF4F7A
:100F20006083D6015B960C935B975296ED91FC9192
:100F30005397808180620CC0D6015696ED91FC914A
:100F4000579760835096ED91FC9151978081806412
:100F5000808381E090E00F90DF91CF911F910F91FE
:100F6000FF90DF90CF900895BF92CF92DF92EF92E3
:100F7000FF92CF93DF93EC016A017B01B22EE889E7
:100F8000F98982E08083411581EE5807610571057A
:100F9000A1F060E079E08DE390E0A70196010E9466
:100FA000A6092150310941095109569547953795B0
:100FB0002795211580E1380798F0E889F989108292
:100FC00060E874E88EE190E0A70196010E94A6090E
:100FD0002150310941095109569547953795279573
:100FE000EC85FD853083EE85FF852083188EEC89A6
:100FF000FD89B082EA89FB89808180618083EA89EA
:10100000FB89808188608083EA89FB898081806890
:101010008083EA89FB8980818F7D8083DF91CF91F6
:10102000FF90EF90DF90CF90BF9008951F920F92A6
:101030000FB60F9211242F938F939F93EF93FF93EB
:10104000E0913102F09132028081E0913702F0911B
:10105000380282FD12C0908180913A028F5F8F73B7
:1010600020913B02821751F0E0913A02F0E0EF5DEF
:10107000FD4F958F80933A0201C08081FF91EF91DF
:101080009F918F912F910F900FBE0F901F901895E9
:101090001F920F920FB60F9211242F933F934F93ED
:1010A0005F936F937F938F939F93AF93BF93EF93D0
:1010B000FF9381E292E00E940C07FF91EF91BF91B4
:1010C000AF919F918F917F916F915F914F913F91E0
:1010D0002F910F900FBE0F901F90189581E292E014
:1010E0000E94D10621E0892B09F420E0822F089587
:1010F000109224021092230288EE93E0A0E0B0E068
:101100008093250290932602A0932702B093280291
:1011100082E391E0909322028093210285EC90E09B
:1011200090932E0280932D0284EC90E090933002F5
:1011300080932F0280EC90E09093320280933102F2
:1011400081EC90E0909334028093330282EC90E043
:10115000909336028093350286EC90E090933802AB
:101160008093370210923A0210923B0210923C0296
:1011700010923D020895CF92DF92EF92FF920F936B
:101180001F93CF93DF937C016A01EB0100E010E035
:101190000C151D0571F06991D701ED91FC9101903D
:1011A000F081E02DC7010995892B19F00F5F1F4FC2
:1011B000EFCFC801DF91CF911F910F91FF90EF907A
:1011C000DF90CF9008956115710581F0DB010D90DE
:1011D0000020E9F7AD0141505109461B570BDC01D6
:1011E000ED91FC910280F381E02D099480E090E084
:1011F0000895DC01ED91FC910190F081E02D0994BE
:101200006EE371E00C94E3088F929F92AF92BF92CD
:10121000DF92EF92FF920F931F93CF93DF93CDB79F
:10122000DEB7A1970FB6F894DEBF0FBECDBF7C012D
:10123000F42FD52ECB0119A2223008F42AE08E011A
:101240000F5D1F4F822E912CA12CB12C6F2F7D2D65
:10125000A50194010E94A609F22FD32ECA010150C4
:1012600011096A3014F4E0E301C0E7E3E60FD801A6
:10127000EC93232B242B252B49F7B801C7010E949F
:10128000E308A1960FB6F894DEBF0FBECDBFDF9185
:10129000CF911F910F91FF90EF90DF90BF90AF9093
:1012A0009F908F9008952115310541F4DC01ED9157
:1012B000FC910190F081E02D642F09940C940409B5
:1012C0009A01462F50E060E070E00C9453099A01B7
:1012D000AB0160E070E00C94530908950E94FE0594
:1012E0000E946D090E942001CEEFD6E00E944E01BF
:1012F0002097E1F30E94FE06F9CF0895AA1BBB1BBD
:1013000051E107C0AA1FBB1FA617B70710F0A61B05
:10131000B70B881F991F5A95A9F780959095BC0126
:10132000CD01089597FB072E16F4009407D077FDA2
:1013300009D00E947E0907FC05D03EF49095819566
:101340009F4F0895709561957F4F0895A1E21A2EE1
:10135000AA1BBB1BFD010DC0AA1FBB1FEE1FFF1F59
:10136000A217B307E407F50720F0A21BB30BE40BA9
:10137000F50B661F771F881F991F1A9469F76095F0
:101380007095809590959B01AC01BD01CF010895AA
:10139000EE0FFF1F0590F491E02D0994F894FFCF14
:1013A0000100D2040B000C000A00FE1FC0077D1FC5
:1013B000F11FC717F71DFF1DC01FFF1FF71F0000FC
:1013C000000099026C02410249025C026B020000BB
:1013D00000004F07BB08D106EA06DC062D070D0A00
:1013E000006E616E00696E66006F7666002E00000A
:107800000C94343C0C94513C0C94513C0C94513CE1
:107810000C94513C0C94513C0C94513C0C94513CB4
:107820000C94513C0C94513C0C94513C0C94513CA4
:107830000C94513C0C94513C0C94513C0C94513C94
:107840000C94513C0C94513C0C94513C0C94513C84
:107850000C94513C0C94513C0C94513C0C94513C74
:107860000C94513C0C94513C11241FBECFEFD8E036
:10787000DEBFCDBF11E0A0E0B1E0ECE9FFE702C060
:1078800005900D92A230B107D9F712E0A2E0B1E065
:1078900001C01D92AD30B107E1F70E942D3D0C945F
:1078A000CC3F0C94003C982F959595959595959582
:1078B000905D8F708A307CF0282F295A8091C0000B
:1078C00085FFFCCF9093C6008091C00085FFFCCF60
:1078D0002093C6000895282F205DF0CF982F809127
:1078E000C00085FFFCCF9093C6000895EF92FF92F1
:1078F0000F931F93EE24FF2487018091C00087FD22
:1079000017C00894E11CF11C011D111D81E4E8164B
:1079100082E4F8068FE0080780E0180770F3E09132
:107920000401F091050109958091C00087FFE9CF1E
:107930008091C6001F910F91FF90EF9008950E94D3
:10794000763C982F8091C00085FFFCCF9093C600B5
:1079500091362CF490330CF09053892F089597555D
:10796000892F08951F930E949F3C182F0E949F3CCF
:107970001295107F810F1F9108951F93182F882350
:1079800021F00E94763C1150E1F71F9108951F935A
:10799000182F0E94763C803249F0809103018F5F5E
:1079A000809303018530C1F01F9108958091C0003C
:1079B00085FFFCCF84E18093C6008091C00085FFE5
:1079C000FCCF1093C6008091C00085FFFCCF80E102
:1079D0008093C6001F910895E0910401F091050184
:1079E00009951F9108950E94763C803241F0809164
:1079F00003018F5F80930301853081F008958091AA
:107A0000C00085FFFCCF84E18093C6008091C00058
:107A100085FFFCCF80E18093C6000895E0910401CA
:107A2000F09105010995089540E951E08823A1F0FE
:107A30002D9A28EE33E0FA013197F1F721503040CA
:107A4000D1F72D9828EE33E0FA013197F1F7215064
:107A50003040D1F7815061F708953F924F925F9285
:107A60006F927F928F929F92AF92BF92CF92DF924E
:107A7000EF92FF920F931F93CF93DF93000080E16B
:107A80008093C4001092C50088E18093C10086E015
:107A90008093C2005098589A259A81E00E94143D24
:107AA00024E1F22E9EE1E92E85E9D82E0FE0C02ECA
:107AB00010E1B12EAA24A394B1E49B2EA6E58A2E50
:107AC000F2E57F2EE0E26E2E79E4572E63E5462E36
:107AD00050E5352E0E94763C8033B1F18133B9F107
:107AE000803409F46FC0813409F476C0823409F41B
:107AF00085C0853409F488C0803531F1823521F1A3
:107B0000813511F1853509F485C0863509F48DC0BC
:107B1000843609F496C0843709F403C1853709F423
:107B200072C1863709F466C0809103018F5F80932C
:107B30000301853079F6E0910401F0910501099582
:107B40000E94763C803351F60E94F33CC3CF0E94E2
:107B5000763C803249F78091C00085FFFCCFF092DF
:107B6000C6008091C00085FFFCCF9092C600809136
:107B7000C00085FFFCCF8092C6008091C00085FFC9
:107B8000FCCF7092C6008091C00085FFFCCF609250
:107B9000C6008091C00085FFFCCF5092C600809146
:107BA000C00085FFFCCF4092C6008091C00085FFD9
:107BB000FCCF3092C6008091C00085FFFCCFB09210
:107BC000C60088CF0E94763C863808F4BDCF0E945C
:107BD000763C0E94F33C7ECF0E94763C803809F4CC
:107BE0009CC0813809F40BC1823809F43CC1883942
:107BF00009F48FC080E00E94C73C6CCF84E10E94F2
:107C0000BD3C0E94F33C66CF85E00E94BD3C0E94D3
:107C1000F33C60CF0E94763C809306010E94763C44
:107C2000809307010E94F33C55CF0E94763C80333D
:107C300009F41DC183E00E94BD3C80E00E94C73C66
:107C400049CF0E94763C809309020E94763C809343
:107C5000080280910C028E7F80930C020E94763C79
:107C6000853409F415C18091080290910902892B8D
:107C700089F000E010E00E94763CF801E85FFE4FDA
:107C800080830F5F1F4F80910802909109020817AF
:107C9000190788F30E94763C803209F045CF809125
:107CA0000C0280FF01C16091060170910701660F0F
:107CB000771F7093070160930601A0910802B091AD
:107CC00009021097C9F0E8E0F1E09B01AD014E0F09
:107CD0005F1FF999FECF32BD21BD819180BDFA9A17
:107CE000F99A2F5F3F4FE417F50799F76A0F7B1F4B
:107CF00070930701609306018091C00085FFFCCF5F
:107D0000F092C6008091C00085FFFCCFB092C60003
:107D1000E1CE83E00E94C73CDDCE82E00E94C73CFA
:107D2000D9CE0E94763C809309020E94763C8093D3
:107D300008028091060190910701880F991F909386
:107D40000701809306010E94763C853409F4A6C0A1
:107D500080910C028E7F80930C020E94763C8032D0
:107D600009F0B8CE8091C00085FFFCCFF092C6002C
:107D7000609108027091090261157105B9F140E046
:107D800050E080910C02A82FA170B82FB27011C0E2
:107D9000BB2309F45CC0E0910601F0910701319624
:107DA000F0930701E09306014F5F5F4F46175707B7
:107DB000E8F4AA2369F3F999FECF209106013091E6
:107DC000070132BD21BDF89A90B58091C00085FFB2
:107DD000FCCF9093C6002F5F3F4F30930701209355
:107DE00006014F5F5F4F4617570718F38091C00099
:107DF00085FDE5CE8091C00085FFF8CFE0CE81E023
:107E00000E94C73C67CE0E94763C803209F08CCE3F
:107E10008091C00085FFFCCFF092C6008091C00029
:107E200085FFFCCFE092C6008091C00085FFFCCFAB
:107E3000D092C6008091C00085FFFCCFC092C600E2
:107E40008091C00085FFFCCFB092C60043CEE09188
:107E50000601F091070194918091C00085FFFCCF4D
:107E60009093C6009CCF80E10E94C73C33CE0E9415
:107E7000763C0E94763C182F0E94763C112309F430
:107E800083C0113009F484C08FE00E94C73C22CE29
:107E900080910C02816080930C02E5CE80910C02EF
:107EA000816080930C0259CF809107018823880F4D
:107EB000880B8A2180930B02809106019091070123
:107EC000880F991F90930701809306018091080203
:107ED00080FF09C080910802909109020196909359
:107EE000090280930802F894F999FECF1127E091D6
:107EF0000601F0910701C8E0D1E08091080290915D
:107F00000902103091F40091570001700130D9F34B
:107F100003E000935700E89500915700017001308D
:107F2000D9F301E100935700E89509901990009169
:107F3000570001700130D9F301E000935700E89534
:107F40001395103498F011270091570001700130FB
:107F5000D9F305E000935700E895009157000170B0
:107F60000130D9F301E100935700E895329602976A
:107F700009F0C7CF103011F00296E5CF112480919F
:107F8000C00085FFB9CEBCCE8EE10E94C73CA2CD19
:0C7F900085E90E94C73C9ECDF894FFCF0D
:027F9C00800063
:040000030000780081
:00000001FF
