:100000000C9462000C948A000C948A000C948A0070
:100010000C948A000C948A000C948A000C948A0038
:100020000C948A000C948A000C948A000C948A0028
:100030000C948A000C948A000C948A000C948A0018
:100040000C9430010C948A000C94EF030C9421045E
:100050000C948A000C948A000C948A000C948A00F8
:100060000C948A000C948A00000000080002010031
:100070000003040700000000000000000000000171
:10008000020408102040800102040810200102042C
:100090000810204080400404040404040404020204
:1000A000020202020303030303030202030000002F
:1000B00000250028002B0000000000240027002A53
:1000C0000000510411241FBECFEFD8E0DEBFCDBF2A
:1000D00011E0A0E0B1E0EEE3FAE002C005900D927D
:1000E000AC32B107D9F721E0ACE2B1E001C01D921A
:1000F000A23DB207E1F710E0C4ECD0E004C02297C3
:10010000FE010E941905C23CD107C9F70E94BD0437
:100110000C941D050C94000061E0809106010E9482
:100120003B0261E0809102010E943B0261E080910C
:1001300004010E943B0226E040E855E260E070E0E6
:1001400085E391E00C948D03AF92BF92CF92DF9242
:10015000EF92FF920F931F93CF93DF93CDB7DEB74C
:1001600028970FB6F894DEBF0FBECDBF20910001D7
:1001700030910101EAE0F0E0C901BF010E94CD0425
:100180009A838983CB01BF010E94CD049C838B831A
:10019000C90164E670E00E94CD04CB01BF010E945A
:1001A000CD049E838D83C90168EE73E00E94CD0467
:1001B00078876F83CE0101967C016E0199E0C90EAC
:1001C000D11CAA24A394B12C00E010E0C501002E9C
:1001D00002C0880F991F0A94E2F7D701ED91FC91B4
:1001E000EE0FFF1FE85FFE4F2081318182239323B2
:1001F00061E0892B09F460E0809102010E947402A1
:1002000061E0809104010E94740260E08091040129
:100210000E9474020F5F1F4F0D301105B9F6B2E056
:10022000EB0EF11CEC14FD0479F661E080910601FF
:100230000E94740264EF71E080E090E028960FB6AF
:10024000F894DEBF0FBECDBFDF91CF911F910F910C
:10025000FF90EF90DF90CF90BF90AF900C949D01F6
:100260001F920F920FB60F9211242F933F938F93EB
:100270009F93AF93BF9380912D0190912E01A091F8
:100280002F01B091300130912C0123E0230F2D3745
:1002900020F40196A11DB11D05C026E8230F02968A
:1002A000A11DB11D20932C0180932D0190932E014F
:1002B000A0932F01B09330018091310190913201D0
:1002C000A0913301B09134010196A11DB11D80931D
:1002D000310190933201A0933301B0933401BF9167
:1002E000AF919F918F913F912F910F900FBE0F90E3
:1002F0001F9018953FB7F894809131019091320189
:10030000A0913301B091340126B5A89B05C02F3FC1
:1003100019F00196A11DB11D3FBF6627782F892FC7
:100320009A2F620F711D811D911D42E0660F771F8C
:10033000881F991F4A95D1F708958F929F92AF9287
:10034000BF92CF92DF92EF92FF926B017C010E94ED
:100350007A014B015C01C114D104E104F104F1F014
:100360000E94CC040E947A01681979098A099B09C4
:10037000683E73408105910570F321E0C21AD108EF
:10038000E108F10888EE880E83E0981EA11CB11CDC
:10039000C114D104E104F10429F7DDCFFF90EF90FF
:1003A000DF90CF90BF90AF909F908F9008957894FA
:1003B00084B5826084BD84B5816084BD85B582606A
:1003C00085BD85B5816085BDEEE6F0E08081816008
:1003D0008083E1E8F0E01082808182608083808108
:1003E00081608083E0E8F0E0808181608083E1EBE0
:1003F000F0E0808184608083E0EBF0E080818160C8
:100400008083EAE7F0E0808184608083808182607D
:100410008083808181608083808180688083109266
:10042000C1000895833081F028F4813099F0823042
:10043000A1F008958730A9F08830B9F08430D1F464
:10044000809180008F7D03C0809180008F778093A2
:100450008000089584B58F7702C084B58F7D84BDF8
:1004600008958091B0008F7703C08091B0008F7D98
:100470008093B0000895CF93DF9390E0FC01E158A2
:10048000FF4F2491FC01EA56FF4F8491882349F1E4
:1004900090E0880F991FFC01E954FF4FA591B4919A
:1004A00083559F4FFC01C591D4919FB7611108C03E
:1004B000F8948C91209582238C93888182230AC0A2
:1004C000623051F4F8948C91322F309583238C93C1
:1004D0008881822B888304C0F8948C91822B8C9322
:1004E0009FBFDF91CF9108950F931F93CF93DF9319
:1004F0001F92CDB7DEB7282F30E0F901E859FF4F42
:100500008491F901E158FF4F1491F901EA56FF4F28
:1005100004910023C9F0882321F069830E9412020C
:100520006981E02FF0E0EE0FFF1FE355FF4FA5912B
:10053000B4919FB7F8948C91611103C010958123F9
:1005400001C0812B8C939FBF0F90DF91CF911F91A2
:100550000F910895FC01818D228D90E0805C9F4F6A
:10056000821B91098F7399270895FC01918D828DCB
:10057000981731F0828DE80FF11D858D90E0089578
:100580008FEF9FEF0895FC01918D828D981761F098
:10059000828DDF01A80FB11D5D968C91928D9F5FBA
:1005A0009F73928F90E008958FEF9FEF089587E4F7
:1005B00094E0892B49F080E090E0892B29F00E949B
:1005C000470481110C9400000895FC01848DDF0123
:1005D000A80FB11DA35ABF4F2C91848D90E00196B6
:1005E0008F739927848FA689B7892C93A089B189A5
:1005F0008C9180648C93938D848D981306C00288AF
:10060000F389E02D80818F7D80830895CF93DF93E0
:10061000EC01888D8823C9F0EA89FB89808185FDFA
:1006200005C0A889B9898C9186FD0FC00FB607FC5B
:10063000F5CF808185FFF2CFA889B9898C9185FF9C
:10064000EDCFCE010E94E502E7CFDF91CF91089573
:10065000CF92DF92FF920F931F93CF93DF931F925E
:10066000CDB7DEB76C0181E0D60158968C935897D0
:100670005B969C915B975C968C915C97981307C0F6
:100680005096ED91FC915197808185FD2EC0F60129
:10069000038D10E00F5F1F4F0F731127F02EF6012F
:1006A000848DF81211C00FB607FCF9CFD601509611
:1006B000ED91FC915197808185FFF1CFC60169834F
:1006C0000E94E5026981EBCF838DE80FF11DE35AAB
:1006D000FF4F6083D6015B960C935B975296ED912A
:1006E000FC915397808180620CC0D6015696ED91A3
:1006F000FC91579760835096ED91FC9151978081C2
:100700008064808381E090E00F90DF91CF911F9112
:100710000F91FF90DF90CF900895BF92CF92DF921C
:10072000EF92FF92CF93DF93EC016A017B01B22E2F
:10073000E889F98982E08083411581EE58076105D7
:100740007105A1F060E079E08DE390E0A7019601EA
:100750000E94E104215031094109510956954795FC
:1007600037952795211580E1380798F0E889F989B0
:10077000108260E874E88EE190E0A70196010E9483
:10078000E1042150310941095109569547953795A2
:100790002795EC85FD853083EE85FF852083188EB7
:1007A000EC89FD89B082EA89FB8980818061808340
:1007B000EA89FB89808188608083EA89FB8980815E
:1007C00080688083EA89FB8980818F7D8083DF91C7
:1007D000CF91FF90EF90DF90CF90BF9008951F9240
:1007E0000F920FB60F9211242F938F939F93EF9335
:1007F000FF93E0914501F09146018081E0914B012A
:10080000F0914C0182FD12C0908180914E018F5F6A
:100810008F7320914F01821751F0E0914E01F0E06B
:10082000EB5CFE4F958F80934E0101C08081FF915C
:10083000EF919F918F912F910F900FBE0F901F906E
:1008400018951F920F920FB60F9211242F933F937A
:100850004F935F936F937F938F939F93AF93BF93C8
:10086000EF93FF9385E391E00E94E502FF91EF9102
:10087000BF91AF919F918F917F916F915F914F91B8
:100880003F912F910F900FBE0F901F90189585E309
:1008900091E00E94AA0221E0892B09F420E0822F36
:1008A0000895109238011092370188EE93E0A0E08D
:1008B000B0E08093390190933A01A0933B01B0934B
:1008C0003C0180E291E0909336018093350185EC04
:1008D00090E0909342018093410184EC90E09093EA
:1008E00044018093430180EC90E090934601809313
:1008F000450181EC90E0909348018093470182ECA0
:1009000090E090934A018093490186EC90E09093A7
:100910004C0180934B0110924E0110924F011092A6
:100920005001109251010895CF92DF92EF92FF9201
:100930000F931F93CF93DF937C016A01EB0100E0DB
:1009400010E00C151D0571F06991D701ED91FC9136
:100950000190F081E02DC7010995892B19F00F5FF7
:100960001F4FEFCFC801DF91CF911F910F91FF90E3
:10097000EF90DF90CF90089508950E94D7010E94D4
:10098000BC040E948C00C7EDD2E00E94A400209716
:10099000E1F30E94D702F9CF089597FB072E16F4D2
:1009A000009407D077FD09D00E94030507FC05D00D
:1009B0003EF4909581959F4F0895709561957F4F76
:1009C0000895A1E21A2EAA1BBB1BFD010DC0AA1F90
:1009D000BB1FEE1FFF1FA217B307E407F50720F0A8
:1009E000A21BB30BE40BF50B661F771F881F991F23
:1009F0001A9469F760957095809590959B01AC016C
:100A0000BD01CF010895AA1BBB1B51E107C0AA1F5E
:100A1000BB1FA617B70710F0A61BB70B881F991F9F
:100A20005A95A9F780959095BC01CD010895EE0FD8
:0E0A3000FF1F0590F491E02D0994F894FFCF7C
:100A3E00D2040B000C000A00FE1FC0077D1FF11F21
:100A4E00C717F71DFF1DC01FFF1FF71F0000000077
:0C0A5E0028039404AA02C302B502060398
:107800000C94343C0C94513C0C94513C0C94513CE1
:107810000C94513C0C94513C0C94513C0C94513CB4
:107820000C94513C0C94513C0C94513C0C94513CA4
:107830000C94513C0C94513C0C94513C0C94513C94
:107840000C94513C0C94513C0C94513C0C94513C84
:107850000C94513C0C94513C0C94513C0C94513C74
:107860000C94513C0C94513C11241FBECFEFD8E036
:10787000DEBFCDBF11E0A0E0B1E0ECE9FFE702C060
:1078800005900D92A230B107D9F712E0A2E0B1E065
:1078900001C01D92AD30B107E1F70E942D3D0C945F
:1078A000CC3F0C94003C982F959595959595959582
:1078B000905D8F708A307CF0282F295A8091C0000B
:1078C00085FFFCCF9093C6008091C00085FFFCCF60
:1078D0002093C6000895282F205DF0CF982F809127
:1078E000C00085FFFCCF9093C6000895EF92FF92F1
:1078F0000F931F93EE24FF2487018091C00087FD22
:1079000017C00894E11CF11C011D111D81E4E8164B
:1079100082E4F8068FE0080780E0180770F3E09132
:107920000401F091050109958091C00087FFE9CF1E
:107930008091C6001F910F91FF90EF9008950E94D3
:10794000763C982F8091C00085FFFCCF9093C600B5
:1079500091362CF490330CF09053892F089597555D
:10796000892F08951F930E949F3C182F0E949F3CCF
:107970001295107F810F1F9108951F93182F882350
:1079800021F00E94763C1150E1F71F9108951F935A
:10799000182F0E94763C803249F0809103018F5F5E
:1079A000809303018530C1F01F9108958091C0003C
:1079B00085FFFCCF84E18093C6008091C00085FFE5
:1079C000FCCF1093C6008091C00085FFFCCF80E102
:1079D0008093C6001F910895E0910401F091050184
:1079E00009951F9108950E94763C803241F0809164
:1079F00003018F5F80930301853081F008958091AA
:107A0000C00085FFFCCF84E18093C6008091C00058
:107A100085FFFCCF80E18093C6000895E0910401CA
:107A2000F09105010995089540E951E08823A1F0FE
:107A30002D9A28EE33E0FA013197F1F721503040CA
:107A4000D1F72D9828EE33E0FA013197F1F7215064
:107A50003040D1F7815061F708953F924F925F9285
:107A60006F927F928F929F92AF92BF92CF92DF924E
:107A7000EF92FF920F931F93CF93DF93000080E16B
:107A80008093C4001092C50088E18093C10086E015
:107A90008093C2005098589A259A81E00E94143D24
:107AA00024E1F22E9EE1E92E85E9D82E0FE0C02ECA
:107AB00010E1B12EAA24A394B1E49B2EA6E58A2E50
:107AC000F2E57F2EE0E26E2E79E4572E63E5462E36
:107AD00050E5352E0E94763C8033B1F18133B9F107
:107AE000803409F46FC0813409F476C0823409F41B
:107AF00085C0853409F488C0803531F1823521F1A3
:107B0000813511F1853509F485C0863509F48DC0BC
:107B1000843609F496C0843709F403C1853709F423
:107B200072C1863709F466C0809103018F5F80932C
:107B30000301853079F6E0910401F0910501099582
:107B40000E94763C803351F60E94F33CC3CF0E94E2
:107B5000763C803249F78091C00085FFFCCFF092DF
:107B6000C6008091C00085FFFCCF9092C600809136
:107B7000C00085FFFCCF8092C6008091C00085FFC9
:107B8000FCCF7092C6008091C00085FFFCCF609250
:107B9000C6008091C00085FFFCCF5092C600809146
:107BA000C00085FFFCCF4092C6008091C00085FFD9
:107BB000FCCF3092C6008091C00085FFFCCFB09210
:107BC000C60088CF0E94763C863808F4BDCF0E945C
:107BD000763C0E94F33C7ECF0E94763C803809F4CC
:107BE0009CC0813809F40BC1823809F43CC1883942
:107BF00009F48FC080E00E94C73C6CCF84E10E94F2
:107C0000BD3C0E94F33C66CF85E00E94BD3C0E94D3
:107C1000F33C60CF0E94763C809306010E94763C44
:107C2000809307010E94F33C55CF0E94763C80333D
:107C300009F41DC183E00E94BD3C80E00E94C73C66
:107C400049CF0E94763C809309020E94763C809343
:107C5000080280910C028E7F80930C020E94763C79
:107C6000853409F415C18091080290910902892B8D
:107C700089F000E010E00E94763CF801E85FFE4FDA
:107C800080830F5F1F4F80910802909109020817AF
:107C9000190788F30E94763C803209F045CF809125
:107CA0000C0280FF01C16091060170910701660F0F
:107CB000771F7093070160930601A0910802B091AD
:107CC00009021097C9F0E8E0F1E09B01AD014E0F09
:107CD0005F1FF999FECF32BD21BD819180BDFA9A17
:107CE000F99A2F5F3F4FE417F50799F76A0F7B1F4B
:107CF00070930701609306018091C00085FFFCCF5F
:107D0000F092C6008091C00085FFFCCFB092C60003
:107D1000E1CE83E00E94C73CDDCE82E00E94C73CFA
:107D2000D9CE0E94763C809309020E94763C8093D3
:107D300008028091060190910701880F991F909386
:107D40000701809306010E94763C853409F4A6C0A1
:107D500080910C028E7F80930C020E94763C8032D0
:107D600009F0B8CE8091C00085FFFCCFF092C6002C
:107D7000609108027091090261157105B9F140E046
:107D800050E080910C02A82FA170B82FB27011C0E2
:107D9000BB2309F45CC0E0910601F0910701319624
:107DA000F0930701E09306014F5F5F4F46175707B7
:107DB000E8F4AA2369F3F999FECF209106013091E6
:107DC000070132BD21BDF89A90B58091C00085FFB2
:107DD000FCCF9093C6002F5F3F4F30930701209355
:107DE00006014F5F5F4F4617570718F38091C00099
:107DF00085FDE5CE8091C00085FFF8CFE0CE81E023
:107E00000E94C73C67CE0E94763C803209F08CCE3F
:107E10008091C00085FFFCCFF092C6008091C00029
:107E200085FFFCCFE092C6008091C00085FFFCCFAB
:107E3000D092C6008091C00085FFFCCFC092C600E2
:107E40008091C00085FFFCCFB092C60043CEE09188
:107E50000601F091070194918091C00085FFFCCF4D
:107E60009093C6009CCF80E10E94C73C33CE0E9415
:107E7000763C0E94763C182F0E94763C112309F430
:107E800083C0113009F484C08FE00E94C73C22CE29
:107E900080910C02816080930C02E5CE80910C02EF
:107EA000816080930C0259CF809107018823880F4D
:107EB000880B8A2180930B02809106019091070123
:107EC000880F991F90930701809306018091080203
:107ED00080FF09C080910802909109020196909359
:107EE000090280930802F894F999FECF1127E091D6
:107EF0000601F0910701C8E0D1E08091080290915D
:107F00000902103091F40091570001700130D9F34B
:107F100003E000935700E89500915700017001308D
:107F2000D9F301E100935700E89509901990009169
:107F3000570001700130D9F301E000935700E89534
:107F40001395103498F011270091570001700130FB
:107F5000D9F305E000935700E895009157000170B0
:107F60000130D9F301E100935700E895329602976A
:107F700009F0C7CF103011F00296E5CF112480919F
:107F8000C00085FFB9CEBCCE8EE10E94C73CA2CD19
:0C7F900085E90E94C73C9ECDF894FFCF0D
:027F9C00800063
:040000030000780081
:00000001FF
