:100000000C9462000C948A000C948A000C948A0070
:100010000C948A000C948A000C948A000C948A0038
:100020000C948A000C948A000C948A000C948A0028
:100030000C948A000C948A000C948A000C948A0018
:100040000C9491010C948A000C948F040C94C104BC
:100050000C948A000C948A000C948A000C948A00F8
:100060000C948A000C948A00000000080002010031
:100070000003040700000000000000000000000171
:10008000020408102040800102040810200102042C
:100090000810204080400404040404040404020204
:1000A000020202020303030303030202030000002F
:1000B00000250028002B0000000000240027002A53
:1000C0000000F10411241FBECFEFD8E0DEBFCDBF8A
:1000D00011E0A0E0B1E0EEEFFBE002C005900D9270
:1000E000AC32B107D9F721E0ACE2B1E001C01D921A
:1000F000AA3DB207E1F710E0C4ECD0E004C02297BB
:10010000FE010E94F905C23CD107C9F70E945D05B6
:100110000C94FD050C94000061E0809106010E94A2
:100120009C0261E0809102010E949C0261E080914A
:1001300004010E949C0226E040E855E260E070E085
:100140008DE391E00C942D042F923F924F925F9299
:100150006F927F928F929F92AF92BF92CF92DF92D7
:10016000EF92FF920F931F93CF93DF9300D000D0B5
:1001700000D0CDB7DEB7E0910001F0910101CF01D1
:1001800068EE73E00E946D058B0170932D01609302
:100190002C01CF0164E670E00E946D05CB012AE0DE
:1001A00030E0B9010E946D054C0190932F018093BE
:1001B0002E01CF01B9010E946D059E838D83CB0175
:1001C000B9010E946D05DC019093310180933001EB
:1001D000ED81FE81F0933301E0933201F801EE0FDF
:1001E000FF1FE85FFE4FA080B180950140E050E026
:1001F00060E070E080E090E00DE00E94A30529013E
:100200003A011B018C01C401880F991F885F9E4F22
:10021000FC0180809180940140E050E060E070E05B
:1002200080E090E05201630171010E94DA050DE067
:100230000E94A305AA0FBB1FA85FBE4F2D903C9044
:100240005101C12CD12CE12CF12C00E010E00E94D6
:10025000DA050DE00E94A305ED81FE81EE0FFF1F80
:10026000E85FFE4F20803180510100E00E94DA05F6
:1002700004E00E94A305122FE42EF62E082F60E062
:100280008091060139835A837B839C830E94D50227
:10029000B7E0CB2ED12C9C817B815A813981212FD3
:1002A00040E0609104018091020139835A837B838D
:1002B0009C830E940B03212F39814E2D5A816F2D73
:1002C0007B81802F9C8108E00E94BE05122FE42EC6
:1002D000F62E082FF1E0CF1AD10809F761E08091DE
:1002E00006010E94D50264EF71E080E090E026965E
:1002F0000FB6F894DEBF0FBECDBFDF91CF911F9137
:100300000F91FF90EF90DF90CF90BF90AF909F90B4
:100310008F907F906F905F904F903F902F900C94B4
:10032000FE011F920F920FB60F9211242F933F934D
:100330008F939F93AF93BF93809135019091360136
:10034000A0913701B09138013091340123E0230F9F
:100350002D3720F40196A11DB11D05C026E8230FFD
:100360000296A11DB11D2093340180933501909315
:100370003601A0933701B0933801809139019091F3
:100380003A01A0913B01B0913C010196A11DB11D24
:100390008093390190933A01A0933B01B0933C01C3
:1003A000BF91AF919F918F913F912F910F900FBE71
:1003B0000F901F9018953FB7F89480913901909154
:1003C0003A01A0913B01B0913C0126B5A89B05C024
:1003D0002F3F19F00196A11DB11D3FBF6627782F51
:1003E000892F9A2F620F711D811D911D42E0660FAA
:1003F000771F881F991F4A95D1F708958F929F9272
:10040000AF92BF92CF92DF92EF92FF926B017C018D
:100410000E94DB014B015C01C114D104E104F10431
:10042000F1F00E946C050E94DB01681979098A09C4
:100430009B09683E73408105910570F321E0C21A63
:10044000D108E108F10888EE880E83E0981EA11C0F
:10045000B11CC114D104E104F10429F7DDCFFF90F0
:10046000EF90DF90CF90BF90AF909F908F900895C6
:10047000789484B5826084BD84B5816084BD85B57F
:10048000826085BD85B5816085BDEEE6F0E0808146
:1004900081608083E1E8F0E0108280818260808367
:1004A000808181608083E0E8F0E0808181608083EA
:1004B000E1EBF0E0808184608083E0EBF0E080811C
:1004C00081608083EAE7F0E08081846080838081BE
:1004D0008260808380818160808380818068808366
:1004E0001092C1000895833081F028F4813099F092
:1004F0008230A1F008958730A9F08830B9F08430B7
:10050000D1F4809180008F7D03C0809180008F772F
:1005100080938000089584B58F7702C084B58F7D65
:1005200084BD08958091B0008F7703C08091B000A2
:100530008F7D8093B0000895CF93DF9390E0FC010E
:10054000E158FF4F2491FC01EA56FF4F8491882324
:1005500049F190E0880F991FFC01E954FF4FA591E4
:10056000B49183559F4FFC01C591D4919FB7611100
:1005700008C0F8948C91209582238C9388818223E3
:100580000AC0623051F4F8948C91322F3095832355
:100590008C938881822B888304C0F8948C91822B61
:1005A0008C939FBFDF91CF9108950F931F93CF93AB
:1005B000DF931F92CDB7DEB7282F30E0F901E8595D
:1005C000FF4F8491F901E158FF4F1491F901EA5668
:1005D000FF4F04910023C9F0882321F069830E9412
:1005E00073026981E02FF0E0EE0FFF1FE355FF4F2C
:1005F000A591B4919FB7F8948C91611103C01095A7
:10060000812301C0812B8C939FBF0F90DF91CF91ED
:100610001F910F910895BF92CF92DF92EF92FF92B8
:100620000F931F93CF93DF93C82ED62EB42EC7E01F
:10063000D0E0022F10E087E0E82EF12CB1100AC0C4
:10064000F701EC1BFD0BB80102C075956795EA95A3
:10065000E2F707C0B8010C2E02C0759567950A94A1
:10066000E2F7617077278C2D0E94D50261E08D2D15
:100670000E94D50260E08D2D0E94D5022197F0F6F0
:10068000DF91CF911F910F91FF90EF90DF90CF906E
:10069000BF900895FC01818D228D90E0805C9F4F7A
:1006A000821B91098F7399270895FC01918D828D8A
:1006B000981731F0828DE80FF11D858D90E0089537
:1006C0008FEF9FEF0895FC01918D828D981761F057
:1006D000828DDF01A80FB11D5D968C91928D9F5F79
:1006E0009F73928F90E008958FEF9FEF089587EEAC
:1006F00094E0892B49F080E090E0892B29F00E945A
:10070000E70481110C9400000895FC01848DDF0141
:10071000A80FB11DA35ABF4F2C91848D90E0019674
:100720008F739927848FA689B7892C93A089B18963
:100730008C9180648C93938D848D981306C002886D
:10074000F389E02D80818F7D80830895CF93DF939F
:10075000EC01888D8823C9F0EA89FB89808185FDB9
:1007600005C0A889B9898C9186FD0FC00FB607FC1A
:10077000F5CF808185FFF2CFA889B9898C9185FF5B
:10078000EDCFCE010E948503E7CFDF91CF91089591
:10079000CF92DF92FF920F931F93CF93DF931F921D
:1007A000CDB7DEB76C0181E0D60158968C9358978F
:1007B0005B969C915B975C968C915C97981307C0B5
:1007C0005096ED91FC915197808185FD2EC0F601E8
:1007D000038D10E00F5F1F4F0F731127F02EF601EE
:1007E000848DF81211C00FB607FCF9CFD6015096D0
:1007F000ED91FC915197808185FFF1CFC60169830E
:100800000E9485036981EBCF838DE80FF11DE35AC8
:10081000FF4F6083D6015B960C935B975296ED91E8
:10082000FC915397808180620CC0D6015696ED9161
:10083000FC91579760835096ED91FC915197808180
:100840008064808381E090E00F90DF91CF911F91D1
:100850000F91FF90DF90CF900895BF92CF92DF92DB
:10086000EF92FF92CF93DF93EC016A017B01B22EEE
:10087000E889F98982E08083411581EE5807610596
:100880007105A1F060E079E08DE390E0A7019601A9
:100890000E9481052150310941095109569547951A
:1008A00037952795211580E1380798F0E889F9896F
:1008B000108260E874E88EE190E0A70196010E9442
:1008C00081052150310941095109569547953795C0
:1008D0002795EC85FD853083EE85FF852083188E76
:1008E000EC89FD89B082EA89FB89808180618083FF
:1008F000EA89FB89808188608083EA89FB8980811D
:1009000080688083EA89FB8980818F7D8083DF9185
:10091000CF91FF90EF90DF90CF90BF9008951F92FE
:100920000F920FB60F9211242F938F939F93EF93F3
:10093000FF93E0914D01F0914E018081E0915301D0
:10094000F091540182FD12C09081809156018F5F19
:100950008F7320915701821751F0E0915601F0E01A
:10096000E35CFE4F958F8093560101C08081FF911B
:10097000EF919F918F912F910F900FBE0F901F902D
:1009800018951F920F920FB60F9211242F933F9339
:100990004F935F936F937F938F939F93AF93BF9387
:1009A000EF93FF938DE391E00E948503FF91EF9118
:1009B000BF91AF919F918F917F916F915F914F9177
:1009C0003F912F910F900FBE0F901F9018958DE3C0
:1009D00091E00E944A0321E0892B09F420E0822F54
:1009E00008951092400110923F0188EE93E0A0E03C
:1009F000B0E08093410190934201A0934301B093F2
:100A0000440180E291E090933E0180933D0185ECAA
:100A100090E090934A018093490184EC90E0909398
:100A20004C0180934B0180EC90E090934E018093B9
:100A30004D0181EC90E09093500180934F0182EC46
:100A400090E0909352018093510186EC90E0909356
:100A50005401809353011092560110925701109245
:100A60005801109259010895CF92DF92EF92FF92B0
:100A70000F931F93CF93DF937C016A01EB0100E09A
:100A800010E00C151D0571F06991D701ED91FC91F5
:100A90000190F081E02DC7010995892B19F00F5FB6
:100AA0001F4FEFCFC801DF91CF911F910F91FF90A2
:100AB000EF90DF90CF90089508950E9438020E9431
:100AC0005C050E948C00C7E7D3E00E94A400209739
:100AD000E1F30E947703F9CF089597FB072E16F4F0
:100AE000009407D077FD09D00E94E30507FC05D0EC
:100AF0003EF4909581959F4F0895709561957F4F35
:100B00000895A1E21A2EAA1BBB1BFD010DC0AA1F4E
:100B1000BB1FEE1FFF1FA217B307E407F50720F066
:100B2000A21BB30BE40BF50B661F771F881F991FE1
:100B30001A9469F760957095809590959B01AC012A
:100B4000BD01CF0108950F93083090F0982F872FA3
:100B5000762F652F542F432F322F22270850F4CFA2
:100B6000220F331F441F551F661F771F881F991FB1
:100B70000A95B2F70F91089597FB10F816940008A4
:100B80000F93083098F00850232F342F452F562FFD
:100B9000672F782F892F902DF4CF059497958795FF
:100BA0007795679557954795379527950A95AAF7AD
:100BB0000F9108952A0D3B1D4C1D5D1D6E1D7F1D5F
:100BC000801F911F0895AA1BBB1B51E107C0AA1FDC
:100BD000BB1FA617B70710F0A61BB70B881F991FDE
:100BE0005A95A9F780959095BC01CD010895EE0F17
:0E0BF000FF1F0590F491E02D0994F894FFCFBB
:100BFE00D2040B000C000A00FE1FC0077D1FF11F60
:100C0E00C717F71DFF1DC01FFF1FF71F00000000B5
:0C0C1E00C80334054A0363035503A60312
:00000001FF
