:100000000C9461000C947E000C947E000C947E0095
:100010000C947E000C947E000C947E000C947E0068
:100020000C947E000C947E000C947E000C947E0058
:100030000C947E000C947E000C947E000C947E0048
:100040000C9431010C947E000C947E000C947E0084
:100050000C947E000C947E000C947E000C947E0028
:100060000C947E000C947E00000000080002010049
:100070000003040700000000000000000000000171
:10008000020408102040800102040810200102042C
:100090000810204080400404040404040404020204
:1000A000020202020303030303030202030000002F
:1000B00000250028002B0000000000240027002A53
:1000C000000011241FBECFEFD8E0DEBFCDBF11E08E
:1000D000A0E0B1E0E0E8F6E002C005900D92AA30A1
:1000E000B107D9F721E0AAE0B1E001C01D92AD311E
:1000F000B207E1F70E94AC020C943E030C9400009E
:1001000061E0809108010E943C0261E0809104015D
:100110000E943C0261E0809106010C943C029F9297
:10012000AF92BF92CF92DF92EF92FF920F931F9305
:10013000CF93DF93A82EB62E942E8901C7E0D0E08E
:10014000EE24E394F12C97E0C92ED12C91100BC032
:10015000F601EC1BFD0BC70102C0880F991FEA9541
:10016000E2F7FC0107C0F7010C2E02C0EE0FFF1FE3
:100170000A94E2F7E023F12361E0EF2B09F460E059
:100180008A2D0E94750261E08B2D0E94750260E04D
:100190008B2D0E9475022197CA3F8FEFD807B1F6C9
:1001A000DF91CF911F910F91FF90EF90DF90CF9053
:1001B000BF90AF909F900895CF93DF93609100011F
:1001C0007091010180910201909103010E94BC0293
:1001D000FB0170930B0160930A01CB0168EE73E0A1
:1001E0000E94160370930D0160930C01CF0164E629
:1001F00070E00E941603CB012AE030E0B9010E94B2
:10020000160390930F0180930E01CF01B9010E9454
:100210001603FC01CB01B9010E9416039093110152
:1002200080931001F0931301E0931201C8E0D1E034
:1002300060E088810E94750220E030E041E060913A
:100240000601809104010E948F0061E088810E9474
:10025000750264EF71E080E090E0DF91CF910C9443
:100260009E011F920F920FB60F9211242F933F936E
:100270008F939F93AF93BF93809115019091160137
:10028000A0911701B09118013091140123E0230FC0
:100290002D3720F40196A11DB11D05C026E8230FBE
:1002A0000296A11DB11D2093140180931501909316
:1002B0001601A0931701B093180180911901909134
:1002C0001A01A0911B01B0911C010196A11DB11D45
:1002D0008093190190931A01A0931B01B0931C0104
:1002E000BF91AF919F918F913F912F910F900FBE32
:1002F0000F901F9018953FB7F89480911901909135
:100300001A01A0911B01B0911C0126B5A89B05C044
:100310002F3F19F00196A11DB11D3FBF6627782F11
:10032000892F9A2F620F711D811D911D42E0660F6A
:10033000771F881F991F4A95D1F708958F929F9232
:10034000AF92BF92CF92DF92EF92FF926B017C014E
:100350000E947B014B015C01C114D104E104F10452
:10036000F1F00E94BB020E947B01681979098A0999
:100370009B09683E73408105910570F321E0C21A24
:10038000D108E108F10888EE880E83E0981EA11CD0
:10039000B11CC114D104E104F10429F7DDCFFF90B1
:1003A000EF90DF90CF90BF90AF909F908F90089587
:1003B000789484B5826084BD84B5816084BD85B540
:1003C000826085BD85B5816085BDEEE6F0E0808107
:1003D00081608083E1E8F0E0108280818260808328
:1003E000808181608083E0E8F0E0808181608083AB
:1003F000E1EBF0E0808184608083E0EBF0E08081DD
:1004000081608083EAE7F0E080818460808380817E
:100410008260808380818160808380818068808326
:100420001092C1000895833081F028F4813099F052
:100430008230A1F008958730A9F08830B9F0843077
:10044000D1F4809180008F7D03C0809180008F77F0
:1004500080938000089584B58F7702C084B58F7D26
:1004600084BD08958091B0008F7703C08091B00063
:100470008F7D8093B0000895CF93DF9390E0FC01CF
:10048000E158FF4F2491FC01EA56FF4F84918823E5
:1004900049F190E0880F991FFC01E954FF4FA591A5
:1004A000B49183559F4FFC01C591D4919FB76111C1
:1004B00008C0F8948C91209582238C9388818223A4
:1004C0000AC0623051F4F8948C91322F3095832316
:1004D0008C938881822B888304C0F8948C91822B22
:1004E0008C939FBFDF91CF9108950F931F93CF936C
:1004F000DF931F92CDB7DEB7282F30E0F901E8591E
:10050000FF4F8491F901E158FF4F1491F901EA5628
:10051000FF4F04910023C9F0882321F069830E94D2
:1005200013026981E02FF0E0EE0FFF1FE355FF4F4C
:10053000A591B4919FB7F8948C91611103C0109567
:10054000812301C0812B8C939FBF0F90DF91CF91AE
:100550001F910F91089508950E94D8010E94AB0247
:100560000E948000C0E0D0E00E94DC002097E1F310
:100570000E940000F9CF089504D06894B11150C0D2
:10058000089533D088F09F5790F0B92F9927B7512D
:10059000A0F0D1F0660F771F881F991F1AF0BA9547
:1005A000C9F712C0B13081F03AD0B1E0089537C038
:1005B000672F782F8827B85F39F0B93FCCF386953D
:1005C00077956795B395D9F73EF49095809570959A
:1005D00061957F4F8F4F9F4F089557FD9058440F5F
:1005E000551F59F05F3F71F04795880F97FB991F92
:1005F00061F09F3F79F0879508951216130614064F
:10060000551FF2CF4695F1DF08C0161617061806DB
:10061000991FF1CF86957105610508940895E894B6
:10062000BB2766277727CB0197F9089597FB072EFD
:1006300016F4009407D077FD09D00E942A0307FC26
:1006400005D03EF4909581959F4F089570956195E2
:100650007F4F0895AA1BBB1B51E107C0AA1FBB1FF8
:10066000A617B70710F0A61BB70B881F991F5A953E
:10067000A9F780959095BC01CD010895F894FFCF1E
:0A06800000C08A440B000C000A00C1
:107800000C94343C0C94513C0C94513C0C94513CE1
:107810000C94513C0C94513C0C94513C0C94513CB4
:107820000C94513C0C94513C0C94513C0C94513CA4
:107830000C94513C0C94513C0C94513C0C94513C94
:107840000C94513C0C94513C0C94513C0C94513C84
:107850000C94513C0C94513C0C94513C0C94513C74
:107860000C94513C0C94513C11241FBECFEFD8E036
:10787000DEBFCDBF11E0A0E0B1E0ECE9FFE702C060
:1078800005900D92A230B107D9F712E0A2E0B1E065
:1078900001C01D92AD30B107E1F70E942D3D0C945F
:1078A000CC3F0C94003C982F959595959595959582
:1078B000905D8F708A307CF0282F295A8091C0000B
:1078C00085FFFCCF9093C6008091C00085FFFCCF60
:1078D0002093C6000895282F205DF0CF982F809127
:1078E000C00085FFFCCF9093C6000895EF92FF92F1
:1078F0000F931F93EE24FF2487018091C00087FD22
:1079000017C00894E11CF11C011D111D81E4E8164B
:1079100082E4F8068FE0080780E0180770F3E09132
:107920000401F091050109958091C00087FFE9CF1E
:107930008091C6001F910F91FF90EF9008950E94D3
:10794000763C982F8091C00085FFFCCF9093C600B5
:1079500091362CF490330CF09053892F089597555D
:10796000892F08951F930E949F3C182F0E949F3CCF
:107970001295107F810F1F9108951F93182F882350
:1079800021F00E94763C1150E1F71F9108951F935A
:10799000182F0E94763C803249F0809103018F5F5E
:1079A000809303018530C1F01F9108958091C0003C
:1079B00085FFFCCF84E18093C6008091C00085FFE5
:1079C000FCCF1093C6008091C00085FFFCCF80E102
:1079D0008093C6001F910895E0910401F091050184
:1079E00009951F9108950E94763C803241F0809164
:1079F00003018F5F80930301853081F008958091AA
:107A0000C00085FFFCCF84E18093C6008091C00058
:107A100085FFFCCF80E18093C6000895E0910401CA
:107A2000F09105010995089540E951E08823A1F0FE
:107A30002D9A28EE33E0FA013197F1F721503040CA
:107A4000D1F72D9828EE33E0FA013197F1F7215064
:107A50003040D1F7815061F708953F924F925F9285
:107A60006F927F928F929F92AF92BF92CF92DF924E
:107A7000EF92FF920F931F93CF93DF93000080E16B
:107A80008093C4001092C50088E18093C10086E015
:107A90008093C2005098589A259A81E00E94143D24
:107AA00024E1F22E9EE1E92E85E9D82E0FE0C02ECA
:107AB00010E1B12EAA24A394B1E49B2EA6E58A2E50
:107AC000F2E57F2EE0E26E2E79E4572E63E5462E36
:107AD00050E5352E0E94763C8033B1F18133B9F107
:107AE000803409F46FC0813409F476C0823409F41B
:107AF00085C0853409F488C0803531F1823521F1A3
:107B0000813511F1853509F485C0863509F48DC0BC
:107B1000843609F496C0843709F403C1853709F423
:107B200072C1863709F466C0809103018F5F80932C
:107B30000301853079F6E0910401F0910501099582
:107B40000E94763C803351F60E94F33CC3CF0E94E2
:107B5000763C803249F78091C00085FFFCCFF092DF
:107B6000C6008091C00085FFFCCF9092C600809136
:107B7000C00085FFFCCF8092C6008091C00085FFC9
:107B8000FCCF7092C6008091C00085FFFCCF609250
:107B9000C6008091C00085FFFCCF5092C600809146
:107BA000C00085FFFCCF4092C6008091C00085FFD9
:107BB000FCCF3092C6008091C00085FFFCCFB09210
:107BC000C60088CF0E94763C863808F4BDCF0E945C
:107BD000763C0E94F33C7ECF0E94763C803809F4CC
:107BE0009CC0813809F40BC1823809F43CC1883942
:107BF00009F48FC080E00E94C73C6CCF84E10E94F2
:107C0000BD3C0E94F33C66CF85E00E94BD3C0E94D3
:107C1000F33C60CF0E94763C809306010E94763C44
:107C2000809307010E94F33C55CF0E94763C80333D
:107C300009F41DC183E00E94BD3C80E00E94C73C66
:107C400049CF0E94763C809309020E94763C809343
:107C5000080280910C028E7F80930C020E94763C79
:107C6000853409F415C18091080290910902892B8D
:107C700089F000E010E00E94763CF801E85FFE4FDA
:107C800080830F5F1F4F80910802909109020817AF
:107C9000190788F30E94763C803209F045CF809125
:107CA0000C0280FF01C16091060170910701660F0F
:107CB000771F7093070160930601A0910802B091AD
:107CC00009021097C9F0E8E0F1E09B01AD014E0F09
:107CD0005F1FF999FECF32BD21BD819180BDFA9A17
:107CE000F99A2F5F3F4FE417F50799F76A0F7B1F4B
:107CF00070930701609306018091C00085FFFCCF5F
:107D0000F092C6008091C00085FFFCCFB092C60003
:107D1000E1CE83E00E94C73CDDCE82E00E94C73CFA
:107D2000D9CE0E94763C809309020E94763C8093D3
:107D300008028091060190910701880F991F909386
:107D40000701809306010E94763C853409F4A6C0A1
:107D500080910C028E7F80930C020E94763C8032D0
:107D600009F0B8CE8091C00085FFFCCFF092C6002C
:107D7000609108027091090261157105B9F140E046
:107D800050E080910C02A82FA170B82FB27011C0E2
:107D9000BB2309F45CC0E0910601F0910701319624
:107DA000F0930701E09306014F5F5F4F46175707B7
:107DB000E8F4AA2369F3F999FECF209106013091E6
:107DC000070132BD21BDF89A90B58091C00085FFB2
:107DD000FCCF9093C6002F5F3F4F30930701209355
:107DE00006014F5F5F4F4617570718F38091C00099
:107DF00085FDE5CE8091C00085FFF8CFE0CE81E023
:107E00000E94C73C67CE0E94763C803209F08CCE3F
:107E10008091C00085FFFCCFF092C6008091C00029
:107E200085FFFCCFE092C6008091C00085FFFCCFAB
:107E3000D092C6008091C00085FFFCCFC092C600E2
:107E40008091C00085FFFCCFB092C60043CEE09188
:107E50000601F091070194918091C00085FFFCCF4D
:107E60009093C6009CCF80E10E94C73C33CE0E9415
:107E7000763C0E94763C182F0E94763C112309F430
:107E800083C0113009F484C08FE00E94C73C22CE29
:107E900080910C02816080930C02E5CE80910C02EF
:107EA000816080930C0259CF809107018823880F4D
:107EB000880B8A2180930B02809106019091070123
:107EC000880F991F90930701809306018091080203
:107ED00080FF09C080910802909109020196909359
:107EE000090280930802F894F999FECF1127E091D6
:107EF0000601F0910701C8E0D1E08091080290915D
:107F00000902103091F40091570001700130D9F34B
:107F100003E000935700E89500915700017001308D
:107F2000D9F301E100935700E89509901990009169
:107F3000570001700130D9F301E000935700E89534
:107F40001395103498F011270091570001700130FB
:107F5000D9F305E000935700E895009157000170B0
:107F60000130D9F301E100935700E895329602976A
:107F700009F0C7CF103011F00296E5CF112480919F
:107F8000C00085FFB9CEBCCE8EE10E94C73CA2CD19
:0C7F900085E90E94C73C9ECDF894FFCF0D
:027F9C00800063
:040000030000780081
:00000001FF
