:100000000C9461000C947E000C947E000C947E0095
:100010000C947E000C947E000C947E000C947E0068
:100020000C947E000C947E000C947E000C947E0058
:100030000C947E000C947E000C947E000C947E0048
:100040000C9431010C947E000C947E000C947E0084
:100050000C947E000C947E000C947E000C947E0028
:100060000C947E000C947E00000000080002010049
:100070000003040700000000000000000000000171
:10008000020408102040800102040810200102042C
:100090000810204080400404040404040404020204
:1000A000020202020303030303030202030000002F
:1000B00000250028002B0000000000240027002A53
:1000C000000011241FBECFEFD8E0DEBFCDBF11E08E
:1000D000A0E0B1E0E0E8F6E002C005900D92AA30A1
:1000E000B107D9F721E0AAE0B1E001C01D92AD311E
:1000F000B207E1F70E94AC020C943E030C9400009E
:1001000061E0809108010E943C0261E0809104015D
:100110000E943C0261E0809106010C943C029F9297
:10012000AF92BF92CF92DF92EF92FF920F931F9305
:10013000CF93DF93A82EB62E942E8901C7E0D0E08E
:10014000EE24E394F12C97E0C92ED12C91100BC032
:10015000F601EC1BFD0BC70102C0880F991FEA9541
:10016000E2F7FC0107C0F7010C2E02C0EE0FFF1FE3
:100170000A94E2F7E023F12361E0EF2B09F460E059
:100180008A2D0E94750261E08B2D0E94750260E04D
:100190008B2D0E9475022197CA3F8FEFD807B1F6C9
:1001A000DF91CF911F910F91FF90EF90DF90CF9053
:1001B000BF90AF909F900895CF93DF93609100011F
:1001C0007091010180910201909103010E94BC0293
:1001D000FB0170930B0160930A01CB0168EE73E0A1
:1001E0000E94160370930D0160930C01CF0164E629
:1001F00070E00E941603CB012AE030E0B9010E94B2
:10020000160390930F0180930E01CF01B9010E9454
:100210001603FC01CB01B9010E9416039093110152
:1002200080931001F0931301E0931201C8E0D1E034
:1002300060E088810E94750220E030E041E060913A
:100240000601809104010E948F0061E088810E9474
:10025000750264EF71E080E090E0DF91CF910C9443
:100260009E011F920F920FB60F9211242F933F936E
:100270008F939F93AF93BF93809115019091160137
:10028000A0911701B09118013091140123E0230FC0
:100290002D3720F40196A11DB11D05C026E8230FBE
:1002A0000296A11DB11D2093140180931501909316
:1002B0001601A0931701B093180180911901909134
:1002C0001A01A0911B01B0911C010196A11DB11D45
:1002D0008093190190931A01A0931B01B0931C0104
:1002E000BF91AF919F918F913F912F910F900FBE32
:1002F0000F901F9018953FB7F89480911901909135
:100300001A01A0911B01B0911C0126B5A89B05C044
:100310002F3F19F00196A11DB11D3FBF6627782F11
:10032000892F9A2F620F711D811D911D42E0660F6A
:10033000771F881F991F4A95D1F708958F929F9232
:10034000AF92BF92CF92DF92EF92FF926B017C014E
:100350000E947B014B015C01C114D104E104F10452
:10036000F1F00E94BB020E947B01681979098A0999
:100370009B09683E73408105910570F321E0C21A24
:10038000D108E108F10888EE880E83E0981EA11CD0
:10039000B11CC114D104E104F10429F7DDCFFF90B1
:1003A000EF90DF90CF90BF90AF909F908F90089587
:1003B000789484B5826084BD84B5816084BD85B540
:1003C000826085BD85B5816085BDEEE6F0E0808107
:1003D00081608083E1E8F0E0108280818260808328
:1003E000808181608083E0E8F0E0808181608083AB
:1003F000E1EBF0E0808184608083E0EBF0E08081DD
:1004000081608083EAE7F0E080818460808380817E
:100410008260808380818160808380818068808326
:100420001092C1000895833081F028F4813099F052
:100430008230A1F008958730A9F08830B9F0843077
:10044000D1F4809180008F7D03C0809180008F77F0
:1004500080938000089584B58F7702C084B58F7D26
:1004600084BD08958091B0008F7703C08091B00063
:100470008F7D8093B0000895CF93DF9390E0FC01CF
:10048000E158FF4F2491FC01EA56FF4F84918823E5
:1004900049F190E0880F991FFC01E954FF4FA591A5
:1004A000B49183559F4FFC01C591D4919FB76111C1
:1004B00008C0F8948C91209582238C9388818223A4
:1004C0000AC0623051F4F8948C91322F3095832316
:1004D0008C938881822B888304C0F8948C91822B22
:1004E0008C939FBFDF91CF9108950F931F93CF936C
:1004F000DF931F92CDB7DEB7282F30E0F901E8591E
:10050000FF4F8491F901E158FF4F1491F901EA5628
:10051000FF4F04910023C9F0882321F069830E94D2
:1005200013026981E02FF0E0EE0FFF1FE355FF4F4C
:10053000A591B4919FB7F8948C91611103C0109567
:10054000812301C0812B8C939FBF0F90DF91CF91AE
:100550001F910F91089508950E94D8010E94AB0247
:100560000E948000C0E0D0E00E94DC002097E1F310
:100570000E940000F9CF089504D06894B11150C0D2
:10058000089533D088F09F5790F0B92F9927B7512D
:10059000A0F0D1F0660F771F881F991F1AF0BA9547
:1005A000C9F712C0B13081F03AD0B1E0089537C038
:1005B000672F782F8827B85F39F0B93FCCF386953D
:1005C00077956795B395D9F73EF49095809570959A
:1005D00061957F4F8F4F9F4F089557FD9058440F5F
:1005E000551F59F05F3F71F04795880F97FB991F92
:1005F00061F09F3F79F0879508951216130614064F
:10060000551FF2CF4695F1DF08C0161617061806DB
:10061000991FF1CF86957105610508940895E894B6
:10062000BB2766277727CB0197F9089597FB072EFD
:1006300016F4009407D077FD09D00E942A0307FC26
:1006400005D03EF4909581959F4F089570956195E2
:100650007F4F0895AA1BBB1B51E107C0AA1FBB1FF8
:10066000A617B70710F0A61BB70B881F991F5A953E
:10067000A9F780959095BC01CD010895F894FFCF1E
:0A06800000C08A440B000C000A00C1
:00000001FF
