:100000000C9462000C948A000C948A000C948A0070
:100010000C948A000C948A000C948A000C948A0038
:100020000C948A000C948A000C948A000C948A0028
:100030000C948A000C948A000C948A000C948A0018
:100040000C945E010C948A000C941D040C944F04D3
:100050000C948A000C948A000C948A000C948A00F8
:100060000C948A000C948A00000000080002010031
:100070000003040700000000000000000000000171
:10008000020408102040800102040810200102042C
:100090000810204080400404040404040404020204
:1000A000020202020303030303030202030000002F
:1000B00000250028002B0000000000240027002A53
:1000C00000007F0411241FBECFEFD8E0DEBFCDBFFC
:1000D00011E0A0E0B1E0E6E6FCE002C005900D9280
:1000E000A034B107D9F721E0A0E4B1E001C01D922E
:1000F000A03FB207E1F710E0C4ECD0E004C02297C3
:10010000FE010E942D06C23CD107C9F70E94770567
:100110000C9431060C94000061E0809108010E946B
:10012000690261E0809104010E94690261E08091AE
:1001300006010E94690226E040E855E260E070E0B6
:1001400083E591E00C94BB039F92AF92BF92CF9254
:10015000DF92EF92FF920F931F93CF93DF93A82E1E
:10016000B62E942E8901C7E0D0E0EE24E394F12C62
:1001700097E0C92ED12C91100BC0F601EC1BFD0BA2
:10018000C70102C0880F991FEA95E2F7FC0107C07A
:10019000F7010C2E02C0EE0FFF1F0A94E2F7E023D6
:1001A000F12361E0EF2B09F460E08A2D0E94A202A6
:1001B00061E08B2D0E94A20260E08B2D0E94A202C2
:1001C0002197CA3F8FEFD807B1F6DF91CF911F91EA
:1001D0000F91FF90EF90DF90CF90BF90AF909F90E6
:1001E0000895CF93DF936091000170910101809198
:1001F0000201909103010E948705FB017093410168
:1002000060934001CB0168EE73E00E94E1057093BA
:10021000430160934201CF0164E670E00E94E10572
:10022000CB012AE030E0B9010E94E105909345013D
:1002300080934401CF01B9010E94E105FC01CB018B
:10024000B9010E94E1059093470180934601F09324
:100250004901E0934801C8E0D1E060E088810E9454
:10026000A202E0914201F0914301EE0FFF1FE65F11
:10027000FE4F2081318141E06091060180910401AF
:100280000E94A400E0914201F0914301EE0FFF1F94
:10029000E65FFE4F6081718142E050E083E591E0CE
:1002A0000E94600561E088810E94A20264EF71E013
:1002B00080E090E0DF91CF910C94CB011F920F92E0
:1002C0000FB60F9211242F933F938F939F93AF9369
:1002D000BF9380914B0190914C01A0914D01B09141
:1002E0004E0130914A0123E0230F2D3720F401966F
:1002F000A11DB11D05C026E8230F0296A11DB11D49
:1003000020934A0180934B0190934C01A0934D019F
:10031000B0934E0180914F0190915001A0915101F5
:10032000B09152010196A11DB11D80934F01909390
:100330005001A0935101B0935201BF91AF919F9191
:100340008F913F912F910F900FBE0F901F90189596
:100350003FB7F89480914F0190915001A0915101C5
:10036000B091520126B5A89B05C02F3F19F0019608
:10037000A11DB11D3FBF6627782F892F9A2F620FCD
:10038000711D811D911D42E0660F771F881F991F07
:100390004A95D1F708958F929F92AF92BF92CF92D4
:1003A000DF92EF92FF926B017C010E94A8014B014A
:1003B0005C01C114D104E104F104F1F00E9486054E
:1003C0000E94A801681979098A099B09683E73404F
:1003D0008105910570F321E0C21AD108E108F10806
:1003E00088EE880E83E0981EA11CB11CC114D104B4
:1003F000E104F10429F7DDCFFF90EF90DF90CF907B
:10040000BF90AF909F908F900895789484B582604C
:1004100084BD84B5816084BD85B5826085BD85B5A8
:10042000816085BDEEE6F0E0808181608083E1E857
:10043000F0E010828081826080838081816080838F
:10044000E0E8F0E0808181608083E1EBF0E0808192
:1004500084608083E0EBF0E0808181608083EAE764
:10046000F0E08081846080838081826080838081ED
:10047000816080838081806880831092C1000895AC
:10048000833081F028F4813099F08230A1F0089512
:100490008730A9F08830B9F08430D1F480918000A1
:1004A0008F7D03C0809180008F77809380000895B6
:1004B00084B58F7702C084B58F7D84BD0895809107
:1004C000B0008F7703C08091B0008F7D8093B00023
:1004D0000895CF93DF9390E0FC01E158FF4F249102
:1004E000FC01EA56FF4F8491882349F190E0880F80
:1004F000991FFC01E954FF4FA591B49183559F4F7B
:10050000FC01C591D4919FB7611108C0F8948C91FA
:10051000209582238C93888182230AC0623051F413
:10052000F8948C91322F309583238C938881822B81
:10053000888304C0F8948C91822B8C939FBFDF91A9
:10054000CF9108950F931F93CF93DF931F92CDB751
:10055000DEB7282F30E0F901E859FF4F8491F90107
:10056000E158FF4F1491F901EA56FF4F049100231F
:10057000C9F0882321F069830E9440026981E02F3D
:10058000F0E0EE0FFF1FE355FF4FA591B4919FB729
:10059000F8948C91611103C01095812301C0812BC7
:1005A0008C939FBF0F90DF91CF911F910F91089572
:1005B000FC01818D228D90E0805C9F4F821B910910
:1005C0008F7399270895FC01918D828D981731F0D2
:1005D000828DE80FF11D858D90E008958FEF9FEFDC
:1005E0000895FC01918D828D981761F0828DDF0155
:1005F000A80FB11D5D968C91928D9F5F9F73928F16
:1006000090E008958FEF9FEF089585E794E0892BA0
:1006100049F080E090E0892B29F00E947504811157
:100620000C9400000895FC01848DDF01A80FB11D1A
:10063000A35ABF4F2C91848D90E001968F73992718
:10064000848FA689B7892C93A089B1898C91806405
:100650008C93938D848D981306C00288F389E02DC6
:1006600080818F7D80830895CF93DF93EC01888D07
:100670008823C9F0EA89FB89808185FD05C0A889A6
:10068000B9898C9186FD0FC00FB607FCF5CF80812C
:1006900085FFF2CFA889B9898C9185FFEDCFCE0176
:1006A0000E941303E7CFDF91CF910895CF92DF929D
:1006B000FF920F931F93CF93DF931F92CDB7DEB7B7
:1006C0006C0181E0D60158968C9358975B969C916B
:1006D0005B975C968C915C97981307C05096ED9150
:1006E000FC915197808185FD2EC0F601038D10E0AD
:1006F0000F5F1F4F0F731127F02EF601848DF81234
:1007000011C00FB607FCF9CFD6015096ED91FC91C0
:100710005197808185FFF1CFC60169830E94130341
:100720006981EBCF838DE80FF11DE35AFF4F6083A2
:10073000D6015B960C935B975296ED91FC91539783
:10074000808180620CC0D6015696ED91FC9157973E
:1007500060835096ED91FC915197808180648083F5
:1007600081E090E00F90DF91CF911F910F91FF906A
:10077000DF90CF900895BF92CF92DF92EF92FF92D9
:10078000CF93DF93EC016A017B01B22EE889F989EE
:1007900082E08083411581EE580761057105A1F063
:1007A00060E079E08DE390E0A70196010E94F505F5
:1007B000215031094109510956954795379527959B
:1007C000211580E1380798F0E889F989108260E8FE
:1007D00074E88EE190E0A70196010E94F505215092
:1007E0003109410951095695479537952795EC856B
:1007F000FD853083EE85FF852083188EEC89FD8989
:10080000B082EA89FB89808180618083EA89FB89E3
:10081000808188608083EA89FB8980818068808309
:10082000EA89FB8980818F7D8083DF91CF91FF9062
:10083000EF90DF90CF90BF9008951F920F920FB668
:100840000F9211242F938F939F93EF93FF93E09137
:100850006301F09164018081E0916901F0916A0186
:1008600082FD12C0908180916C018F5F8F73209107
:100870006D01821751F0E0916C01F0E0ED5AFE4FEE
:10088000958F80936C0101C08081FF91EF919F91C2
:100890008F912F910F900FBE0F901F9018951F9260
:1008A0000F920FB60F9211242F933F934F935F93A4
:1008B0006F937F938F939F93AF93BF93EF93FF9328
:1008C00083E591E00E941303FF91EF91BF91AF91F7
:1008D0009F918F917F916F915F914F913F912F9158
:1008E0000F900FBE0F901F90189583E591E00E9426
:1008F000D80221E0892B09F420E0822F089510927C
:1009000056011092550188EE93E0A0E0B0E080938C
:10091000570190935801A0935901B0935A0182E274
:1009200091E0909354018093530185EC90E0909373
:10093000600180935F0184EC90E09093620180936A
:10094000610180EC90E0909364018093630181ECFD
:1009500090E0909366018093650182EC90E0909323
:1009600068018093670186EC90E090936A01809320
:10097000690110926C0110926D0110926E0110923B
:100980006F010895CF92DF92EF92FF920F931F9322
:10099000CF93DF937C016A01EB0100E010E00C15BE
:1009A0001D0571F06991D701ED91FC910190F081E5
:1009B000E02DC7010995892B19F00F5F1F4FEFCF6D
:1009C000C801DF91CF911F910F91FF90EF90DF90C1
:1009D000CF9008956115710581F0DB010D90002025
:1009E000E9F7AD0141505109461B570BDC01ED9170
:1009F000FC910280F381E02D099480E090E008955D
:100A00006EE271E00C94EA048F929F92AF92BF92D3
:100A1000DF92EF92FF920F931F93CF93DF93CDB7A7
:100A2000DEB7A1970FB6F894DEBF0FBECDBF7C0135
:100A3000F42FD52ECB0119A2223008F42AE08E0122
:100A40000F5D1F4F822E912CA12CB12C6F2F7D2D6D
:100A5000A50194010E94F505F22FD32ECA01015081
:100A600011096A3014F4E0E301C0E7E3E60FD801AE
:100A7000EC93232B242B252B49F7B801C7010E94A7
:100A8000EA04A1960FB6F894DEBF0FBECDBFDF918A
:100A9000CF911F910F91FF90EF90DF90BF90AF909B
:100AA0009F908F9008952115310541F4DC01ED915F
:100AB000FC910190F081E02D642F09940C940405C1
:100AC0000F931F93CF93DF93EC019A01AB0160E08A
:100AD00070E00E9453058C01CE010E940005800F3A
:100AE000911FDF91CF911F910F91089508950E945A
:100AF00005020E9476050E948C00C5E0D3E00E94AA
:100B0000F1002097E1F30E940503F9CF089504D086
:100B10006894B11150C0089533D088F09F5790F079
:100B2000B92F9927B751A0F0D1F0660F771F881F12
:100B3000991F1AF0BA95C9F712C0B13081F03AD0B6
:100B4000B1E0089537C0672F782F8827B85F39F054
:100B5000B93FCCF3869577956795B395D9F73EF471
:100B600090958095709561957F4F8F4F9F4F089519
:100B700057FD9058440F551F59F05F3F71F047954E
:100B8000880F97FB991F61F09F3F79F08795089533
:100B9000121613061406551FF2CF4695F1DF08C052
:100BA000161617061806991FF1CF8695710561056F
:100BB00008940895E894BB2766277727CB0197F917
:100BC000089597FB072E16F4009407D077FD09D0FF
:100BD0000E94170607FC05D03EF4909581959F4F23
:100BE0000895709561957F4F0895A1E21A2EAA1B72
:100BF000BB1BFD010DC0AA1FBB1FEE1FFF1FA217CD
:100C0000B307E407F50720F0A21BB30BE40BF50BC9
:100C1000661F771F881F991F1A9469F76095709552
:100C2000809590959B01AC01BD01CF010895AA1B51
:100C3000BB1B51E107C0AA1FBB1FA617B70710F0C7
:100C4000A61BB70B881F991F5A95A9F780959095F9
:100C5000BC01CD010895EE0FFF1F0590F491E02D2A
:060C60000994F894FFCF97
:100C660000C08A440B000C000A00FF0FFD1FDF1BAB
:100C7600FF153D1EF71DF71F7F00FF1FFF1D00001C
:100C860000005603C204D802F102E30234030D0A3F
:100C9600006E616E00696E66006F7666002E00005B
:00000001FF
