:100000000C9462000C948A000C948A000C948A0070
:100010000C948A000C948A000C948A000C948A0038
:100020000C948A000C948A000C948A000C948A0028
:100030000C948A000C948A000C948A000C948A0018
:100040000C9448030C948A000C9446060C94780691
:100050000C948A000C948A000C948A000C948A00F8
:100060000C948A000C948A00000000080002010031
:100070000003040700000000000000000000000171
:10008000020408102040800102040810200102042C
:100090000810204080400404040404040404020204
:1000A000020202020303030303030202030000002F
:1000B00000250028002B0000000000240027002A53
:1000C0000000A80611241FBECFEFD8E0DEBFCDBFD1
:1000D00011E0A0E0B1E0E6E7F8E102C005900D9282
:1000E000A233B107D9F721E0A2E3B1E001C01D922C
:1000F000AE3EB207E1F710E0C4ECD0E004C02297B6
:10010000FE010E94C009C23CD107C9F70E94D30872
:100110000C94390C0C94000061E080910E010E9457
:10012000530461E080910A010E94530461E08091D0
:100130000C010E94530426E040E855E260E070E0C4
:100140008DE491E00C94E4054F925F926F927F9260
:100150008F929F92AF92BF920F93CF93DF93CDB7C1
:10016000DEB76E970FB6F894DEBF0FBECDBF6091BD
:1001700006017091070180910801909109010E9488
:10018000E308FB017093330160933201CB0168EE09
:1001900073E00E943D097093350160933401CF01F3
:1001A00064E670E00E943D09CB012AE030E0B9012D
:1001B0000E943D099093370180933601CF01B90128
:1001C0000E943D09FC01CB01B9010E943D099093B9
:1001D000390180933801F0933B01E0933A0120917B
:1001E0003C0130913D0140913E0150913F016091B1
:1001F0004001709141018091420190914301295049
:10020000304E4F4F5F4F6F4F7F4F8F4F9F4F2901A2
:100210003A014B015C0120933C0150923D01409317
:100220003E0170923F0160934001909241018093A2
:100230004201B0924301B301A2016627772720E172
:10024000CE0107960E94660820E030E0A30160E03E
:1002500070E080E090E000E10E948E09E22F20E152
:10026000BA014E2F532FCE010D960E946608BE0193
:10027000635F7F4FCE0101960E944508BE01695F12
:100280007F4FCE0101960E94BF08BC01CE01499666
:100290000E944508CE0101960E94C007CE010D962E
:1002A0000E94C007CE0107960E94C00720913C0122
:1002B00030913D0140913E0150913F0160914001DC
:1002C0007091410180914201909143010DE00E94A3
:1002D00073092250304E4F4F5F4F6F4F7F4F8F4FFC
:1002E0009F4F0E9473092150304E4F4F5F4F6F4F09
:1002F0007F4F8F4F9F4F0E9473092054304E4F4FB6
:100300005F4F6F4F7F4F8F4F9F4F04E00E947309E5
:1003100020933C0130933D0140933E0150933F01B7
:100320006093400170934101809342019093430197
:1003300020E140E05CEF60E070E0CE0107960E94B3
:10034000660820E14FEF5FEB60E070E0CE010D96B4
:100350000E946608BE01635F7F4FCE0101960E9436
:100360004508BE01695F7F4FCE0101960E94BF081C
:10037000BC01CE0143960E944508CE0101960E9421
:10038000C007CE010D960E94C007CE0107960E94BD
:10039000C007BE016D5E7F4F8DE491E00E943B0778
:1003A0008EE0482E81E0582E60E0F20180810E94AC
:1003B0008C049CE3A92E91E0B92E42E050E0F501B7
:1003C00060818DE491E00E94A9072CE0622E21E07B
:1003D000722E3AE0832E31E0932EF501208140E029
:1003E000F3016081F40180810E94C20420913C01EC
:1003F00030913D0140913E0150913F01609140019B
:1004000070914101809142019091430108E00E9466
:100410008E0920933C0130933D0140933E0150935F
:100420003F0160934001709341018093420190939A
:10043000430142E050E0622F8DE491E00E94A90761
:10044000F501208140E0F3016081F40180810E9488
:10045000C20420913C0130913D0140913E015091F8
:100460003F01609140017091410180914201909162
:1004700043010E948E0920933C0130933D0140933B
:100480003E0150933F01609340017093410180937E
:1004900042019093430142E050E0622F8DE491E0ED
:1004A0000E94A907F501208140E0F3016081F40179
:1004B00080810E94C20420913C0130913D01409115
:1004C0003E0150913F016091400170914101809146
:1004D0004201909143010E948E0920933C01309388
:1004E0003D0140933E0150933F0160934001709362
:1004F0004101809342019093430142E050E0622F1A
:100500008DE491E00E94A907F501208140E0F3010C
:100510006081F40180810E94C20420913C013091ED
:100520003D0140913E0150913F0160914001709129
:10053000410180914201909143010E948E092093D4
:100540003C0130933D0140933E0150933F01609345
:10055000400170934101809342019093430142E036
:1005600050E0622F8DE491E00E94A907F5012081FF
:1005700040E0F3016081F40180810E94C204209177
:100580003C0130913D0140913E0150913F0160910D
:1005900040017091410180914201909143010E947C
:1005A0008E0920933C0130933D0140933E015093CE
:1005B0003F01609340017093410180934201909309
:1005C000430142E050E0622F8DE491E00E94A907D0
:1005D000F501208140E0F3016081F40180810E94F7
:1005E000C20420913C0130913D0140913E01509167
:1005F0003F016091400170914101809142019091D1
:1006000043010E948E0920933C0130933D014093A9
:100610003E0150933F0160934001709341018093EC
:1006200042019093430142E050E0622F8DE491E05B
:100630000E94A907F501208140E0F3016081F401E7
:1006400080810E94C20461E0F20180810E948C04DA
:1006500064EF71E080E090E00E94B503CE01439624
:100660000E94C007CE0149960E94C0076E960FB641
:10067000F894DEBF0FBECDBFDF91CF910F91BF9039
:10068000AF909F908F907F906F905F904F90089564
:100690001F920F920FB60F9211242F933F938F93B7
:1006A0009F93AF93BF938091450190914601A09194
:1006B0004701B09148013091440123E0230F2D37C9
:1006C00020F40196A11DB11D05C026E8230F029656
:1006D000A11DB11D209344018093450190934601D3
:1006E000A0934701B09348018091490190914A013C
:1006F000A0914B01B0914C010196A11DB11D8093B9
:10070000490190934A01A0934B01B0934C01BF91D2
:10071000AF919F918F913F912F910F900FBE0F90AE
:100720001F9018953FB7F8948091490190914A0124
:10073000A0914B01B0914C0126B5A89B05C02F3F5D
:1007400019F00196A11DB11D3FBF6627782F892F93
:100750009A2F620F711D811D911D42E0660F771F58
:10076000881F991F4A95D1F708958F929F92AF9253
:10077000BF92CF92DF92EF92FF926B017C010E94B9
:1007800092034B015C01C114D104E104F104F1F0C6
:100790000E94E2080E949203681979098A099B095C
:1007A000683E73408105910570F321E0C21AD108BB
:1007B000E108F10888EE880E83E0981EA11CB11CA8
:1007C000C114D104E104F10429F7DDCFFF90EF90CB
:1007D000DF90CF90BF90AF909F908F9008957894C6
:1007E00084B5826084BD84B5816084BD85B5826036
:1007F00085BD85B5816085BDEEE6F0E080818160D4
:100800008083E1E8F0E010828081826080838081D3
:1008100081608083E0E8F0E0808181608083E1EBAB
:10082000F0E0808184608083E0EBF0E08081816093
:100830008083EAE7F0E08081846080838081826049
:100840008083808181608083808180688083109232
:10085000C1000895833081F028F4813099F082300E
:10086000A1F008958730A9F08830B9F08430D1F430
:10087000809180008F7D03C0809180008F7780936E
:100880008000089584B58F7702C084B58F7D84BDC4
:1008900008958091B0008F7703C08091B0008F7D64
:1008A0008093B0000895CF93DF9390E0FC01E1586E
:1008B000FF4F2491FC01EA56FF4F8491882349F1B0
:1008C00090E0880F991FFC01E954FF4FA591B49166
:1008D00083559F4FFC01C591D4919FB7611108C00A
:1008E000F8948C91209582238C93888182230AC06E
:1008F000623051F4F8948C91322F309583238C938D
:100900008881822B888304C0F8948C91822B8C93ED
:100910009FBFDF91CF9108950F931F93CF93DF93E4
:100920001F92CDB7DEB7282F30E0F901E859FF4F0D
:100930008491F901E158FF4F1491F901EA56FF4FF4
:1009400004910023C9F0882321F069830E942A04BE
:100950006981E02FF0E0EE0FFF1FE355FF4FA591F7
:10096000B4919FB7F8948C91611103C010958123C5
:1009700001C0812B8C939FBF0F90DF91CF911F916E
:100980000F910895BF92CF92DF92EF92FF920F9353
:100990001F93CF93DF93C82ED62EB42EC7E0D0E09E
:1009A000022F10E087E0E82EF12CB1100AC0F70109
:1009B000EC1BFD0BB80102C075956795EA95E2F74F
:1009C00007C0B8010C2E02C0759567950A94E2F72E
:1009D000617077278C2D0E948C0461E08D2D0E9420
:1009E0008C0460E08D2D0E948C042197F0F6DF913D
:1009F000CF911F910F91FF90EF90DF90CF90BF901C
:100A00000895FC01818D228D90E0805C9F4F821BB8
:100A100091098F7399270895FC01918D828D981704
:100A200031F0828DE80FF11D858D90E008958FEFF4
:100A30009FEF0895FC01918D828D981761F0828D52
:100A4000DF01A80FB11D5D968C91928D9F5F9F7302
:100A5000928F90E008958FEF9FEF08958EE996E0D2
:100A6000892B49F080E090E0892B29F00E949E06B6
:100A700081110C9400000895FC01848DDF01A80F02
:100A8000B11DA35ABF4F2C91848D90E001968F73B6
:100A90009927848FA689B7892C93A089B1898C91D5
:100AA00080648C93938D848D981306C00288F3899B
:100AB000E02D80818F7D80830895CF93DF93EC01BB
:100AC000888D8823C9F0EA89FB89808185FD05C06E
:100AD000A889B9898C9186FD0FC00FB607FCF5CFA8
:100AE000808185FFF2CFA889B9898C9185FFEDCFF0
:100AF000CE010E943C05E7CFDF91CF910895CF92C0
:100B0000DF92FF920F931F93CF93DF931F92CDB786
:100B1000DEB76C0181E0D60158968C9358975B96AE
:100B20009C915B975C968C915C97981307C050964C
:100B3000ED91FC915197808185FD2EC0F601038DCA
:100B400010E00F5F1F4F0F731127F02EF601848DF9
:100B5000F81211C00FB607FCF9CFD6015096ED91EF
:100B6000FC915197808185FFF1CFC60169830E9476
:100B70003C056981EBCF838DE80FF11DE35AFF4FF0
:100B80006083D6015B960C935B975296ED91FC9136
:100B90005397808180620CC0D6015696ED91FC91EE
:100BA000579760835096ED91FC91519780818064B6
:100BB000808381E090E00F90DF91CF911F910F91A2
:100BC000FF90DF90CF900895BF92CF92DF92EF9287
:100BD000FF92CF93DF93EC016A017B01B22EE8898B
:100BE000F98982E08083411581EE5807610571051E
:100BF000A1F060E079E08DE390E0A70196010E940A
:100C000051092150310941095109569547953795A8
:100C10002795211580E1380798F0E889F989108235
:100C200060E874E88EE190E0A70196010E94510906
:100C30002150310941095109569547953795279516
:100C4000EC85FD853083EE85FF852083188EEC8949
:100C5000FD89B082EA89FB89808180618083EA898D
:100C6000FB89808188608083EA89FB898081806834
:100C70008083EA89FB8980818F7D8083DF91CF919A
:100C8000FF90EF90DF90CF90BF9008951F920F924A
:100C90000FB60F9211242F938F939F93EF93FF938F
:100CA000E0915D01F0915E018081E0916301F0913E
:100CB000640182FD12C09081809166018F5F8F7305
:100CC00020916701821751F0E0916601F0E0E35B4B
:100CD000FE4F958F8093660101C08081FF91EF9157
:100CE0009F918F912F910F900FBE0F901F9018958D
:100CF0001F920F920FB60F9211242F933F934F9391
:100D00005F936F937F938F939F93AF93BF93EF9373
:100D1000FF938DE491E00E943C05FF91EF91BF911C
:100D2000AF919F918F917F916F915F914F913F9183
:100D30002F910F900FBE0F901F9018958DE491E0AA
:100D40000E94010521E0892B09F420E0822F0895FB
:100D50001092500110924F0188EE93E0A0E0B0E0B5
:100D60008093510190935201A0935301B093540189
:100D700084E191E090934E0180934D0185EC90E0E9
:100D800090935A018093590184EC90E090935C0118
:100D900080935B0180EC90E090935E0180935D0115
:100DA00081EC90E09093600180935F0182EC90E091
:100DB000909362018093610186EC90E090936401CE
:100DC000809363011092660110926701109268018E
:100DD000109269010895CF92DF92EF92FF920F93E4
:100DE0001F93CF93DF937C016A01EB0100E010E0D9
:100DF0000C151D0571F06991D701ED91FC910190E1
:100E0000F081E02DC7010995892B19F00F5F1F4F65
:100E1000EFCFC801DF91CF911F910F91FF90EF901D
:100E2000DF90CF9008956115710581F0DB010D9081
:100E30000020E9F7AD0141505109461B570BDC0179
:100E4000ED91FC910280F381E02D099480E090E027
:100E50000895DC01ED91FC91DB0114964D915C91BC
:100E600015976D917C910280F381E02D099460E2E9
:100E700071E00C9413070F931F93CF93DF93EC0152
:100E80000E9429078C01CE010E943707800F911F15
:100E9000DF91CF911F910F9108958F929F92AF9202
:100EA000BF92DF92EF92FF920F931F93CF93DF9346
:100EB000CDB7DEB7A1970FB6F894DEBF0FBECDBF9A
:100EC0007C01F42FD52ECB0119A2223008F42AE0A0
:100ED0008E010F5D1F4F822E912CA12CB12C6F2FF4
:100EE0007D2DA50194010E945109F22FD32ECA0134
:100EF000015011096A3014F4E0E301C0E7E3E60FA2
:100F0000D801EC93232B242B252B49F7B801C701DB
:100F10000E941307A1960FB6F894DEBF0FBECDBF97
:100F2000DF91CF911F910F91FF90EF90DF90BF90D5
:100F3000AF909F908F9008952115310541F4DC0109
:100F4000ED91FC910190F081E02D642F09940C94B7
:100F50004D070F931F93CF93DF93EC019A01462F18
:100F600050E060E070E00E949C078C01CE010E947E
:100F70003707800F911FDF91CF911F910F91089537
:100F8000FC01808191810C945C0ACF93DF93EC018A
:100F900088819981009711F00E945C0A1982188259
:100FA0001D821C821B821A82DF91CF9108950F93BC
:100FB0001F93CF93DF93EC018B016F5F7F4F88818D
:100FC00099810E94EB0A009731F0998388831B83F3
:100FD0000A8381E001C080E0DF91CF911F910F91E2
:100FE0000895CF93DF93EC0188819981892B29F0B3
:100FF0008A819B818617970760F4CE010E94D707EC
:10100000882341F08C819D81892B19F4E881F98135
:10101000108281E0DF91CF910895EF92FF920F93BC
:101020001F93CF93DF93EC017B018A01BA010E94E9
:10103000F107811104C0CE010E94C50707C01D83BE
:101040000C83B701888199810E94BE0BCE01DF918C
:10105000CF911F910F91FF90EF900895CF93DF9361
:10106000EC01FB018617970761F0608171816115C2
:10107000710529F0448155810E940D0802C00E942B
:10108000C507CE01DF91CF910895FC011182108236
:1010900013821282158214820C942E08CF93DF9350
:1010A000EC016115710561F0FB0101900020E9F789
:1010B000AF0141505109461B570B0E940D0802C059
:1010C0000E94C507CE01DF91CF9108950F931F9322
:1010D000CF93DF93CDB7DEB7A1970FB6F894DEBFFD
:1010E0000FBECDBF8C01CB01BA01F8011182108275
:1010F000138212821582148230E0AE014F5F5F4F7F
:101100000E94C50BBE016F5F7F4FC8010E944E0851
:10111000A1960FB6F894DEBF0FBECDBFDF91CF9181
:101120001F910F910895EF92FF920F931F93CF930A
:10113000DF93EC017B010C811D816115710511F4B8
:1011400080E016C04115510591F0040F151FB8013C
:101150000E94F1078823A1F3288139818C819D8128
:10116000B701820F931F0E94BE0B1D830C8381E089
:10117000DF91CF911F910F91FF90EF900895CF9342
:10118000DF93EC01FB0144815581608171810E94F4
:101190009308811103C0CE010E94C507CE01DF91E3
:1011A000CF91089508950E94EF030E94D2080E94F3
:1011B0008C00CEE2D5E00E94A4002097E1F30E94CB
:1011C0002E05F9CF089504D06894B11150C0089548
:1011D00033D088F09F5790F0B92F9927B751A0F0DE
:1011E000D1F0660F771F881F991F1AF0BA95C9F7BB
:1011F00012C0B13081F03AD0B1E0089537C0672F06
:10120000782F8827B85F39F0B93FCCF3869577956A
:101210006795B395D9F73EF4909580957095619553
:101220007F4F8F4F9F4F089557FD9058440F551F84
:1012300059F05F3F71F04795880F97FB991F61F058
:101240009F3F79F087950895121613061406551FCF
:10125000F2CF4695F1DF08C0161617061806991F3B
:10126000F1CF86957105610508940895E894BB2730
:1012700066277727CB0197F9089597FB072E16F479
:10128000009407D077FD09D00E94AA0907FC05D079
:101290003EF4909581959F4F0895709561957F4F8D
:1012A0000895A1E21A2EAA1BBB1BFD010DC0AA1FA7
:1012B000BB1FEE1FFF1FA217B307E407F50720F0BF
:1012C000A21BB30BE40BF50B661F771F881F991F3A
:1012D0001A9469F760957095809590959B01AC0183
:1012E000BD01CF0108950F93083090F0982F872FFC
:1012F000762F652F542F432F322F22270850F4CFFB
:10130000220F331F441F551F661F771F881F991F09
:101310000A95B2F70F91089597FB10F816940008FC
:101320000F93083098F00850232F342F452F562F55
:10133000672F782F892F902DF4CF05949795879557
:101340007795679557954795379527950A95AAF705
:101350000F910895AA1BBB1B51E107C0AA1FBB1F19
:10136000A617B70710F0A61BB70B881F991F5A9531
:10137000A9F780959095BC01CD010895EE0FFF1F50
:101380000590F491E02D0994CF93DF93823091057D
:1013900010F482E090E0E091EC01F091ED0120E0AA
:1013A00030E0A0E0B0E0309739F14081518148173A
:1013B0005907B8F04817590771F482819381109743
:1013C00029F013969C938E9312972CC09093ED0165
:1013D0008093EC0127C02115310531F042175307E6
:1013E00018F0A901DB0101C0EF019A01BD01DF0185
:1013F0000280F381E02DD7CF21153105F9F0281BAC
:10140000390B2430310580F48A819B816115710587
:1014100021F0FB019383828304C09093ED018093BC
:10142000EC01FE01329644C0FE01E20FF31F8193EE
:10143000919322503109398328833AC02091EA01DF
:101440003091EB01232B41F42091020130910301F3
:101450003093EB012093EA012091000130910101CA
:101460002115310541F42DB73EB74091040150914B
:101470000501241B350BE091EA01F091EB01E21725
:10148000F307A0F42E1B3F0B2817390778F0AC01A7
:101490004E5F5F4F2417350748F04E0F5F1F509384
:1014A000EB014093EA018193919302C0E0E0F0E008
:1014B000CF01DF91CF910895CF93DF93009709F487
:1014C00087C0FC01329713821282C091EC01D09147
:1014D000ED01209781F420813181280F391F8091FF
:1014E000EA019091EB018217930779F5F093EB01F4
:1014F000E093EA016DC0DE0120E030E0AE17BF07E7
:1015000050F412964D915C9113979D014115510530
:1015100009F1DA01F3CFB383A28340815181840FB3
:10152000951F8A179B0771F48D919C911197840FD9
:10153000951F02969183808312968D919C911397AB
:10154000938382832115310529F4F093ED01E09313
:10155000EC013EC0D9011396FC93EE9312974D9186
:101560005D91A40FB51FEA17FB0779F48081918183
:10157000840F951F0296D90111969C938E938281B8
:10158000938113969C938E931297E0E0F0E08A810A
:101590009B81009719F0FE01EC01F9CFCE01029674
:1015A00028813981820F931F2091EA013091EB014C
:1015B0002817390769F4309729F41092ED01109239
:1015C000EC0102C013821282D093EB01C093EA01B6
:1015D000DF91CF910895A0E0B0E0E1EFFAE00C9444
:1015E000060CEC01CB01209719F40E94C409B8C085
:1015F000FE01E60FF71F9E0122503109E217F307A3
:1016000008F4ACC0D9010D911C911197061717076A
:10161000B8F00530110508F49FC0A80144505109E5
:101620004617570708F498C002501109061B170BFC
:10163000019311936D937C93CF010E945C0A8CC03F
:101640005B01A01AB10A4E01800E911EA091EC011F
:10165000B091ED01612C712C60E070E0109709F4FD
:1016600049C0A815B905C9F5ED90FC90119767011F
:1016700042E0C40ED11CCA14DB0478F147018A1879
:101680009B08640142E0C40ED11C1296BC901297D4
:101690001396AC91B5E0CB16D10440F0B282A3838F
:1016A00091828082D9018D939C9309C00E5F1F4F58
:1016B0000E0D1F1DF90111830083EB2DFA2F61150B
:1016C000710531F0DB011396FC93EE93129744C041
:1016D000F093ED01E093EC013FC06D917C91119787
:1016E0006616770608F43B01BD0112960D90BC9179
:1016F000A02DB4CF6091EA017091EB0168157905D6
:10170000E9F468167906D0F4409100015091010186
:101710004115510541F44DB75EB7609104017091D8
:101720000501461B570BE417F507C0F4F093EB01D6
:10173000E093EA01F901918380830EC00E94C409FD
:101740007C01009759F0A801BE010E94B50BCE01A3
:101750000E945C0AC70104C0CE0102C080E090E094
:10176000CDB7DEB7EEE00C94220CFB01DC0102C029
:1017700001900D9241505040D8F70895FB01DC01D3
:1017800001900D920020E1F708952532310520F4F3
:10179000223010F00C94D00BFA011082CA01089587
:1017A000BB27FA01A62F6217710581059105330B3E
:1017B00030FB66F0AA27660F771F881F991FAA1FA4
:1017C000A21710F0A21B63953850A9F7A05DAA33A9
:1017D00008F0A95DA19336F7B111B1931082CA0147
:1017E0000C94F20BDC01FC01672F71917723E1F778
:1017F000329704C07C916D9370836291AE17BF07DE
:10180000C8F308952F923F924F925F926F927F920A
:101810008F929F92AF92BF92CF92DF92EF92FF9200
:101820000F931F93CF93DF93CDB7DEB7CA1BDB0BAC
:101830000FB6F894DEBF0FBECDBF09942A88398851
:1018400048885F846E847D848C849B84AA84B98458
:10185000C884DF80EE80FD800C811B81AA81B98164
:10186000CE0FD11D0FB6F894DEBF0FBECDBFED0178
:061870000895F894FFCF7B
:101876000000EE01800000008B440B000C000A0003
:10188600000000007F05EB0601051A050C055D0545
:101896000D0A006E616E00696E66006F7666002E38
:0218A600000040
:107800000C94343C0C94513C0C94513C0C94513CE1
:107810000C94513C0C94513C0C94513C0C94513CB4
:107820000C94513C0C94513C0C94513C0C94513CA4
:107830000C94513C0C94513C0C94513C0C94513C94
:107840000C94513C0C94513C0C94513C0C94513C84
:107850000C94513C0C94513C0C94513C0C94513C74
:107860000C94513C0C94513C11241FBECFEFD8E036
:10787000DEBFCDBF11E0A0E0B1E0ECE9FFE702C060
:1078800005900D92A230B107D9F712E0A2E0B1E065
:1078900001C01D92AD30B107E1F70E942D3D0C945F
:1078A000CC3F0C94003C982F959595959595959582
:1078B000905D8F708A307CF0282F295A8091C0000B
:1078C00085FFFCCF9093C6008091C00085FFFCCF60
:1078D0002093C6000895282F205DF0CF982F809127
:1078E000C00085FFFCCF9093C6000895EF92FF92F1
:1078F0000F931F93EE24FF2487018091C00087FD22
:1079000017C00894E11CF11C011D111D81E4E8164B
:1079100082E4F8068FE0080780E0180770F3E09132
:107920000401F091050109958091C00087FFE9CF1E
:107930008091C6001F910F91FF90EF9008950E94D3
:10794000763C982F8091C00085FFFCCF9093C600B5
:1079500091362CF490330CF09053892F089597555D
:10796000892F08951F930E949F3C182F0E949F3CCF
:107970001295107F810F1F9108951F93182F882350
:1079800021F00E94763C1150E1F71F9108951F935A
:10799000182F0E94763C803249F0809103018F5F5E
:1079A000809303018530C1F01F9108958091C0003C
:1079B00085FFFCCF84E18093C6008091C00085FFE5
:1079C000FCCF1093C6008091C00085FFFCCF80E102
:1079D0008093C6001F910895E0910401F091050184
:1079E00009951F9108950E94763C803241F0809164
:1079F00003018F5F80930301853081F008958091AA
:107A0000C00085FFFCCF84E18093C6008091C00058
:107A100085FFFCCF80E18093C6000895E0910401CA
:107A2000F09105010995089540E951E08823A1F0FE
:107A30002D9A28EE33E0FA013197F1F721503040CA
:107A4000D1F72D9828EE33E0FA013197F1F7215064
:107A50003040D1F7815061F708953F924F925F9285
:107A60006F927F928F929F92AF92BF92CF92DF924E
:107A7000EF92FF920F931F93CF93DF93000080E16B
:107A80008093C4001092C50088E18093C10086E015
:107A90008093C2005098589A259A81E00E94143D24
:107AA00024E1F22E9EE1E92E85E9D82E0FE0C02ECA
:107AB00010E1B12EAA24A394B1E49B2EA6E58A2E50
:107AC000F2E57F2EE0E26E2E79E4572E63E5462E36
:107AD00050E5352E0E94763C8033B1F18133B9F107
:107AE000803409F46FC0813409F476C0823409F41B
:107AF00085C0853409F488C0803531F1823521F1A3
:107B0000813511F1853509F485C0863509F48DC0BC
:107B1000843609F496C0843709F403C1853709F423
:107B200072C1863709F466C0809103018F5F80932C
:107B30000301853079F6E0910401F0910501099582
:107B40000E94763C803351F60E94F33CC3CF0E94E2
:107B5000763C803249F78091C00085FFFCCFF092DF
:107B6000C6008091C00085FFFCCF9092C600809136
:107B7000C00085FFFCCF8092C6008091C00085FFC9
:107B8000FCCF7092C6008091C00085FFFCCF609250
:107B9000C6008091C00085FFFCCF5092C600809146
:107BA000C00085FFFCCF4092C6008091C00085FFD9
:107BB000FCCF3092C6008091C00085FFFCCFB09210
:107BC000C60088CF0E94763C863808F4BDCF0E945C
:107BD000763C0E94F33C7ECF0E94763C803809F4CC
:107BE0009CC0813809F40BC1823809F43CC1883942
:107BF00009F48FC080E00E94C73C6CCF84E10E94F2
:107C0000BD3C0E94F33C66CF85E00E94BD3C0E94D3
:107C1000F33C60CF0E94763C809306010E94763C44
:107C2000809307010E94F33C55CF0E94763C80333D
:107C300009F41DC183E00E94BD3C80E00E94C73C66
:107C400049CF0E94763C809309020E94763C809343
:107C5000080280910C028E7F80930C020E94763C79
:107C6000853409F415C18091080290910902892B8D
:107C700089F000E010E00E94763CF801E85FFE4FDA
:107C800080830F5F1F4F80910802909109020817AF
:107C9000190788F30E94763C803209F045CF809125
:107CA0000C0280FF01C16091060170910701660F0F
:107CB000771F7093070160930601A0910802B091AD
:107CC00009021097C9F0E8E0F1E09B01AD014E0F09
:107CD0005F1FF999FECF32BD21BD819180BDFA9A17
:107CE000F99A2F5F3F4FE417F50799F76A0F7B1F4B
:107CF00070930701609306018091C00085FFFCCF5F
:107D0000F092C6008091C00085FFFCCFB092C60003
:107D1000E1CE83E00E94C73CDDCE82E00E94C73CFA
:107D2000D9CE0E94763C809309020E94763C8093D3
:107D300008028091060190910701880F991F909386
:107D40000701809306010E94763C853409F4A6C0A1
:107D500080910C028E7F80930C020E94763C8032D0
:107D600009F0B8CE8091C00085FFFCCFF092C6002C
:107D7000609108027091090261157105B9F140E046
:107D800050E080910C02A82FA170B82FB27011C0E2
:107D9000BB2309F45CC0E0910601F0910701319624
:107DA000F0930701E09306014F5F5F4F46175707B7
:107DB000E8F4AA2369F3F999FECF209106013091E6
:107DC000070132BD21BDF89A90B58091C00085FFB2
:107DD000FCCF9093C6002F5F3F4F30930701209355
:107DE00006014F5F5F4F4617570718F38091C00099
:107DF00085FDE5CE8091C00085FFF8CFE0CE81E023
:107E00000E94C73C67CE0E94763C803209F08CCE3F
:107E10008091C00085FFFCCFF092C6008091C00029
:107E200085FFFCCFE092C6008091C00085FFFCCFAB
:107E3000D092C6008091C00085FFFCCFC092C600E2
:107E40008091C00085FFFCCFB092C60043CEE09188
:107E50000601F091070194918091C00085FFFCCF4D
:107E60009093C6009CCF80E10E94C73C33CE0E9415
:107E7000763C0E94763C182F0E94763C112309F430
:107E800083C0113009F484C08FE00E94C73C22CE29
:107E900080910C02816080930C02E5CE80910C02EF
:107EA000816080930C0259CF809107018823880F4D
:107EB000880B8A2180930B02809106019091070123
:107EC000880F991F90930701809306018091080203
:107ED00080FF09C080910802909109020196909359
:107EE000090280930802F894F999FECF1127E091D6
:107EF0000601F0910701C8E0D1E08091080290915D
:107F00000902103091F40091570001700130D9F34B
:107F100003E000935700E89500915700017001308D
:107F2000D9F301E100935700E89509901990009169
:107F3000570001700130D9F301E000935700E89534
:107F40001395103498F011270091570001700130FB
:107F5000D9F305E000935700E895009157000170B0
:107F60000130D9F301E100935700E895329602976A
:107F700009F0C7CF103011F00296E5CF112480919F
:107F8000C00085FFB9CEBCCE8EE10E94C73CA2CD19
:0C7F900085E90E94C73C9ECDF894FFCF0D
:027F9C00800063
:040000030000780081
:00000001FF
