:100000000C9462000C948A000C948A000C948A0070
:100010000C948A000C948A000C948A000C948A0038
:100020000C948A000C948A000C948A000C948A0028
:100030000C948A000C948A000C948A000C948A0018
:100040000C94C7010C948A000C94C5040C94F7041A
:100050000C948A000C948A000C948A000C948A00F8
:100060000C948A000C948A00000000080002010031
:100070000003040700000000000000000000000171
:10008000020408102040800102040810200102042C
:100090000810204080400404040404040404020204
:1000A000020202020303030303030202030000002F
:1000B00000250028002B0000000000240027002A53
:1000C0000000270511241FBECFEFD8E0DEBFCDBF53
:1000D00011E0A0E0B1E0E6E0F5E102C005900D928C
:1000E000A233B107D9F721E0A2E3B1E001C01D922C
:1000F000A83EB207E1F710E0C4ECD0E004C02297BC
:10010000FE010E940808C23CD107C9F70E945207AD
:100110000C94810A0C94000061E080910E010E9411
:10012000D20261E080910A010E94D20261E08091D6
:100130000C010E94D20226E040E855E260E070E047
:1001400087E491E00C946304CF92DF92EF92FF92E8
:100150000F931F93CF93DF93CDB7DEB76E970FB694
:10016000F894DEBF0FBECDBF60910601709107010C
:1001700080910801909109010E946207FB01709330
:10018000330160933201CB0168EE73E00E94BC073B
:100190007093350160933401CF0164E670E00E94F2
:1001A000BC07CB012AE030E0B9010E94BC07909364
:1001B000370180933601CF01B9010E94BC07FC01D1
:1001C000CB01B9010E94BC0790933901809338019B
:1001D000F0933B01E0933A0120E14CE750E060E00E
:1001E00070E0CE0107960E94E50620E140E050E075
:1001F000BA01CE010D960E94E506BE01635F7F4FF6
:10020000CE0101960E94C406BE01695F7F4FCE01F8
:1002100001960E943E07BC01CE0149960E94C40689
:10022000CE0101960E943F06CE010D960E943F0628
:10023000CE0107960E943F0620E149EF56E760E0B5
:1002400070E0CE0107960E94E50620E14CE153E004
:1002500060E070E0CE010D960E94E506BE01635F8E
:100260007F4FCE0101960E94C406BE01695F7F4F99
:10027000CE0101960E943E07BC01CE0143960E942A
:10028000C406CE0101960E943F06CE010D960E9443
:100290003F06CE0107960E943F06BE016D5E7F4F6E
:1002A00087E491E00E94BA058EE0C82E81E0D82E46
:1002B00060E0F60180810E940B0389EF90E090934B
:1002C0003D0180933C0142E050E069EF87E491E01A
:1002D0000E9428069CE0E92E91E0F92E0AE011E048
:1002E00029EF40E0F7016081F80180810E9441031D
:1002F00042E050E066E787E491E00E94280626E7A6
:1003000040E0F7016081F80180810E94410342E0F2
:1003100050E06CE187E491E00E9428062CE140E087
:10032000F7016081F80180810E94410342E050E0C2
:1003300063E087E491E00E94280623E040E0F701B3
:100340006081F80180810E94410361E0F6018081B3
:100350000E940B0368EE73E080E090E00E9434029C
:10036000CE0143960E943F06CE0149960E943F0669
:100370006E960FB6F894DEBF0FBECDBFDF91CF9162
:100380001F910F91FF90EF90DF90CF9008951F92F3
:100390000F920FB60F9211242F933F938F939F9339
:1003A000AF93BF9380913F0190914001A091410193
:1003B000B091420130913E0123E0230F2D3720F40C
:1003C0000196A11DB11D05C026E8230F0296A11DAF
:1003D000B11D20933E0180933F0190934001A09373
:1003E0004101B09342018091430190914401A09159
:1003F0004501B09146010196A11DB11D80934301B5
:1004000090934401A0934501B0934601BF91AF91F1
:100410009F918F913F912F910F900FBE0F901F9042
:1004200018953FB7F8948091430190914401A091B1
:100430004501B091460126B5A89B05C02F3F19F094
:100440000196A11DB11D3FBF6627782F892F9A2FD6
:10045000620F711D811D911D42E0660F771F881F7D
:10046000991F4A95D1F708958F929F92AF92BF92AC
:10047000CF92DF92EF92FF926B017C010E941102FA
:100480004B015C01C114D104E104F104F1F00E94BC
:1004900061070E941102681979098A099B09683E5F
:1004A00073408105910570F321E0C21AD108E1087B
:1004B000F10888EE880E83E0981EA11CB11CC114BF
:1004C000D104E104F10429F7DDCFFF90EF90DF9034
:1004D000CF90BF90AF909F908F900895789484B5FF
:1004E000826084BD84B5816084BD85B5826085BD30
:1004F00085B5816085BDEEE6F0E080818160808316
:10050000E1E8F0E0108280818260808380818160F8
:100510008083E0E8F0E0808181608083E1EBF0E0BF
:10052000808184608083E0EBF0E080818160808363
:10053000EAE7F0E08081846080838081826080834C
:100540008081816080838081806880831092C10077
:100550000895833081F028F4813099F08230A1F041
:1005600008958730A9F08830B9F08430D1F48091B3
:1005700080008F7D03C0809180008F778093800002
:10058000089584B58F7702C084B58F7D84BD0895AA
:100590008091B0008F7703C08091B0008F7D8093F1
:1005A000B0000895CF93DF9390E0FC01E158FF4F36
:1005B0002491FC01EA56FF4F8491882349F190E091
:1005C000880F991FFC01E954FF4FA591B491835501
:1005D0009F4FFC01C591D4919FB7611108C0F89459
:1005E0008C91209582238C93888182230AC062306B
:1005F00051F4F8948C91322F309583238C93888119
:10060000822B888304C0F8948C91822B8C939FBF9B
:10061000DF91CF9108950F931F93CF93DF931F9294
:10062000CDB7DEB7282F30E0F901E859FF4F8491AC
:10063000F901E158FF4F1491F901EA56FF4F049177
:100640000023C9F0882321F069830E94A9026981EF
:10065000E02FF0E0EE0FFF1FE355FF4FA591B4919F
:100660009FB7F8948C91611103C01095812301C04C
:10067000812B8C939FBF0F90DF91CF911F910F9192
:100680000895BF92CF92DF92EF92FF920F931F9344
:10069000CF93DF93C82ED62EB42EC7E0D0E0022F22
:1006A00010E087E0E82EF12CB1100AC0F701EC1B36
:1006B000FD0BB80102C075956795EA95E2F707C092
:1006C000B8010C2E02C0759567950A94E2F7617027
:1006D00077278C2D0E940B0361E08D2D0E940B0368
:1006E00060E08D2D0E940B032197F0F6DF91CF91F2
:1006F0001F910F91FF90EF90DF90CF90BF900895E2
:10070000FC01818D228D90E0805C9F4F821B9109BE
:100710008F7399270895FC01918D828D981731F080
:10072000828DE80FF11D858D90E008958FEF9FEF8A
:100730000895FC01918D828D981761F0828DDF0103
:10074000A80FB11D5D968C91928D9F5F9F73928FC4
:1007500090E008958FEF9FEF08958DE195E0892B4C
:1007600049F080E090E0892B29F00E941D0581115D
:100770000C9400000895FC01848DDF01A80FB11DC9
:10078000A35ABF4F2C91848D90E001968F739927C7
:10079000848FA689B7892C93A089B1898C918064B4
:1007A0008C93938D848D981306C00288F389E02D75
:1007B00080818F7D80830895CF93DF93EC01888DB6
:1007C0008823C9F0EA89FB89808185FD05C0A88955
:1007D000B9898C9186FD0FC00FB607FCF5CF8081DB
:1007E00085FFF2CFA889B9898C9185FFEDCFCE0125
:1007F0000E94BB03E7CFDF91CF910895CF92DF92A4
:10080000FF920F931F93CF93DF931F92CDB7DEB765
:100810006C0181E0D60158968C9358975B969C9119
:100820005B975C968C915C97981307C05096ED91FE
:10083000FC915197808185FD2EC0F601038D10E05B
:100840000F5F1F4F0F731127F02EF601848DF812E2
:1008500011C00FB607FCF9CFD6015096ED91FC916F
:100860005197808185FFF1CFC60169830E94BB0348
:100870006981EBCF838DE80FF11DE35AFF4F608351
:10088000D6015B960C935B975296ED91FC91539732
:10089000808180620CC0D6015696ED91FC915797ED
:1008A00060835096ED91FC915197808180648083A4
:1008B00081E090E00F90DF91CF911F910F91FF9019
:1008C000DF90CF900895BF92CF92DF92EF92FF9288
:1008D000CF93DF93EC016A017B01B22EE889F9899D
:1008E00082E08083411581EE580761057105A1F012
:1008F00060E079E08DE390E0A70196010E94D007C7
:100900002150310941095109569547953795279549
:10091000211580E1380798F0E889F989108260E8AC
:1009200074E88EE190E0A70196010E94D007215063
:100930003109410951095695479537952795EC8519
:10094000FD853083EE85FF852083188EEC89FD8937
:10095000B082EA89FB89808180618083EA89FB8992
:10096000808188608083EA89FB89808180688083B8
:10097000EA89FB8980818F7D8083DF91CF91FF9011
:10098000EF90DF90CF90BF9008951F920F920FB617
:100990000F9211242F938F939F93EF93FF93E091E6
:1009A0005701F09158018081E0915D01F0915E0165
:1009B00082FD12C09081809160018F5F8F732091C2
:1009C0006101821751F0E0916001F0E0E95BFE4FB8
:1009D000958F8093600101C08081FF91EF919F917D
:1009E0008F912F910F900FBE0F901F9018951F920F
:1009F0000F920FB60F9211242F933F934F935F9353
:100A00006F937F938F939F93AF93BF93EF93FF93D6
:100A100087E491E00E94BB03FF91EF91BF91AF91FA
:100A20009F918F917F916F915F914F913F912F9106
:100A30000F900FBE0F901F90189587E491E00E94D1
:100A4000800321E0892B09F420E0822F0895109281
:100A50004A011092490188EE93E0A0E0B0E0809353
:100A60004B0190934C01A0934D01B0934E0184E152
:100A700091E0909348018093470185EC90E090933A
:100A800054018093530184EC90E09093560180933D
:100A9000550180EC90E0909358018093570181ECD0
:100AA00090E090935A018093590182EC90E09093EA
:100AB0005C0180935B0186EC90E090935E018093F3
:100AC0005D0110926001109261011092620110921A
:100AD00063010895CF92DF92EF92FF920F931F93DD
:100AE000CF93DF937C016A01EB0100E010E00C156D
:100AF0001D0571F06991D701ED91FC910190F08194
:100B0000E02DC7010995892B19F00F5F1F4FEFCF1B
:100B1000C801DF91CF911F910F91FF90EF90DF906F
:100B2000CF9008956115710581F0DB010D900020D3
:100B3000E9F7AD0141505109461B570BDC01ED911E
:100B4000FC910280F381E02D099480E090E008950B
:100B5000DC01ED91FC91DB0114964D915C911597B0
:100B60006D917C910280F381E02D099460E271E047
:100B70000C9492050F931F93CF93DF93EC010E9487
:100B8000A8058C01CE010E94B605800F911FDF9150
:100B9000CF911F910F9108958F929F92AF92BF9224
:100BA000DF92EF92FF920F931F93CF93DF93CDB716
:100BB000DEB7A1970FB6F894DEBF0FBECDBF7C01A4
:100BC000F42FD52ECB0119A2223008F42AE08E0191
:100BD0000F5D1F4F822E912CA12CB12C6F2F7D2DDC
:100BE000A50194010E94D007F22FD32ECA01015013
:100BF00011096A3014F4E0E301C0E7E3E60FD8011D
:100C0000EC93232B242B252B49F7B801C7010E9415
:100C10009205A1960FB6F894DEBF0FBECDBFDF914F
:100C2000CF911F910F91FF90EF90DF90BF90AF9009
:100C30009F908F9008952115310541F4DC01ED91CD
:100C4000FC910190F081E02D642F09940C94CC0567
:100C50000F931F93CF93DF93EC019A01462F50E03F
:100C600060E070E00E941B068C01CE010E94B60578
:100C7000800F911FDF91CF911F910F910895FC017B
:100C8000808191810C94A408CF93DF93EC0188813B
:100C90009981009711F00E94A408198218821D8280
:100CA0001C821B821A82DF91CF9108950F931F93AC
:100CB000CF93DF93EC018B016F5F7F4F8881998128
:100CC0000E943309009731F0998388831B830A833C
:100CD00081E001C080E0DF91CF911F910F910895D5
:100CE000CF93DF93EC0188819981892B29F08A8148
:100CF0009B818617970760F4CE010E9456068823D1
:100D000041F08C819D81892B19F4E881F981108251
:100D100081E0DF91CF910895EF92FF920F931F939F
:100D2000CF93DF93EC017B018A01BA010E94700628
:100D3000811104C0CE010E94440607C01D830C83AC
:100D4000B701888199810E94060ACE01DF91CF9177
:100D50001F910F91FF90EF900895CF93DF93EC01D7
:100D6000FB018617970761F060817181611571053C
:100D700029F0448155810E948C0602C00E944406DD
:100D8000CE01DF91CF910895FC0111821082138270
:100D90001282158214820C94AD06CF93DF93EC017E
:100DA0006115710561F0FB0101900020E9F7AF01C9
:100DB00041505109461B570B0E948C0602C00E94ED
:100DC0004406CE01DF91CF9108950F931F93CF93E7
:100DD000DF93CDB7DEB7A1970FB6F894DEBF0FBE95
:100DE000CDBF8C01CB01BA01F801118210821382B0
:100DF00012821582148230E0AE014F5F5F4F0E9475
:100E00000D0ABE016F5F7F4FC8010E94CD06A196FB
:100E10000FB6F894DEBF0FBECDBFDF91CF911F910B
:100E20000F910895EF92FF920F931F93CF93DF934B
:100E3000EC017B010C811D816115710511F480E0CD
:100E400016C04115510591F0040F151FB8010E94FD
:100E500070068823A1F3288139818C819D81B70197
:100E6000820F931F0E94060A1D830C8381E0DF918D
:100E7000CF911F910F91FF90EF900895CF93DF9343
:100E8000EC01FB0144815581608171810E94120750
:100E9000811103C0CE010E944406CE01DF91CF91A3
:100EA000089508950E946E020E9451070E948C00CE
:100EB000CDEAD3E00E94A4002097E1F30E94AD03A5
:100EC000F9CF089504D06894B11150C0089533D07B
:100ED00088F09F5790F0B92F9927B751A0F0D1F023
:100EE000660F771F881F991F1AF0BA95C9F712C0AD
:100EF000B13081F03AD0B1E0089537C0672F782F34
:100F00008827B85F39F0B93FCCF386957795679518
:100F1000B395D9F73EF490958095709561957F4F84
:100F20008F4F9F4F089557FD9058440F551F59F00C
:100F30005F3F71F04795880F97FB991F61F09F3FC6
:100F400079F087950895121613061406551FF2CFEF
:100F50004695F1DF08C0161617061806991FF1CF3F
:100F600086957105610508940895E894BB27662766
:100F70007727CB0197F9089597FB072E16F4009475
:100F800007D077FD09D00E94F20707FC05D03EF498
:100F9000909581959F4F0895709561957F4F089525
:100FA000A1E21A2EAA1BBB1BFD010DC0AA1FBB1F6D
:100FB000EE1FFF1FA217B307E407F50720F0A21BDF
:100FC000B30BE40BF50B661F771F881F991F1A944C
:100FD00069F760957095809590959B01AC01BD0176
:100FE000CF010895AA1BBB1B51E107C0AA1FBB1F5D
:100FF000A617B70710F0A61BB70B881F991F5A95A5
:10100000A9F780959095BC01CD010895EE0FFF1FC3
:101010000590F491E02D0994CF93DF9382309105F0
:1010200010F482E090E0E091E601F091E70120E029
:1010300030E0A0E0B0E0309739F1408151814817AD
:101040005907B8F04817590771F4828193811097B6
:1010500029F013969C938E9312972CC09093E701DE
:101060008093E60127C02115310531F0421753075F
:1010700018F0A901DB0101C0EF019A01BD01DF01F8
:101080000280F381E02DD7CF21153105F9F0281B1F
:10109000390B2430310580F48A819B8161157105FB
:1010A00021F0FB019383828304C09093E701809336
:1010B000E601FE01329644C0FE01E20FF31F819368
:1010C000919322503109398328833AC02091E40159
:1010D0003091E501232B41F420910201309103016D
:1010E0003093E5012093E40120910001309101014A
:1010F0002115310541F42DB73EB7409104015091BF
:101100000501241B350BE091E401F091E501E217A4
:10111000F307A0F42E1B3F0B2817390778F0AC011A
:101120004E5F5F4F2417350748F04E0F5F1F5093F7
:10113000E5014093E4018193919302C0E0E0F0E087
:10114000CF01DF91CF910895CF93DF93009709F4FA
:1011500087C0FC01329713821282C091E601D091C0
:10116000E701209781F420813181280F391F809178
:10117000E4019091E5018217930779F5F093E50179
:10118000E093E4016DC0DE0120E030E0AE17BF0760
:1011900050F412964D915C9113979D0141155105A4
:1011A00009F1DA01F3CFB383A28340815181840F27
:1011B000951F8A179B0771F48D919C911197840F4D
:1011C000951F02969183808312968D919C9113971F
:1011D000938382832115310529F4F093E701E0938D
:1011E000E6013EC0D9011396FC93EE9312974D9100
:1011F0005D91A40FB51FEA17FB0779F480819181F7
:10120000840F951F0296D90111969C938E9382812B
:10121000938113969C938E931297E0E0F0E08A817D
:101220009B81009719F0FE01EC01F9CFCE010296E7
:1012300028813981820F931F2091E4013091E501CB
:101240002817390769F4309729F41092E7011092B2
:10125000E60102C013821282D093E501C093E4013B
:10126000DF91CF910895A0E0B0E0E9E3F9E00C94BC
:101270004E0AEC01CB01209719F40E940C08B8C06B
:10128000FE01E60FF71F9E0122503109E217F30716
:1012900008F4ACC0D9010D911C91119706171707DE
:1012A000B8F00530110508F49FC0A8014450510959
:1012B0004617570708F498C002501109061B170B70
:1012C000019311936D937C93CF010E94A4088CC06D
:1012D0005B01A01AB10A4E01800E911EA091E60199
:1012E000B091E701612C712C60E070E0109709F477
:1012F00049C0A815B905C9F5ED90FC901197670193
:1013000042E0C40ED11CCA14DB0478F147018A18EC
:101310009B08640142E0C40ED11C1296BC90129747
:101320001396AC91B5E0CB16D10440F0B282A38302
:1013300091828082D9018D939C9309C00E5F1F4FCB
:101340000E0D1F1DF90111830083EB2DFA2F61157E
:10135000710531F0DB011396FC93EE93129744C0B4
:10136000F093E701E093E6013FC06D917C91119706
:101370006616770608F43B01BD0112960D90BC91EC
:10138000A02DB4CF6091E4017091E5016815790555
:10139000E9F468167906D0F44091000150910101FA
:1013A0004115510541F44DB75EB76091040170914C
:1013B0000501461B570BE417F507C0F4F093E50150
:1013C000E093E401F901918380830EC00E940C0830
:1013D0007C01009759F0A801BE010E94FD09CE01D1
:1013E0000E94A408C70104C0CE0102C080E090E0C2
:1013F000CDB7DEB7EEE00C946A0AFB01DC0102C057
:1014000001900D9241505040D8F70895FB01DC0146
:1014100001900D920020E1F708952532310520F466
:10142000223010F00C94180AFA011082CA010895B3
:10143000BB27FA01A62F6217710581059105330BB1
:1014400030FB66F0AA27660F771F881F991FAA1F17
:10145000A21710F0A21B63953850A9F7A05DAA331C
:1014600008F0A95DA19336F7B111B1931082CA01BA
:101470000C943A0ADC01FC01672F71917723E1F7A4
:10148000329704C07C916D9370836291AE17BF0751
:10149000C8F308952F923F924F925F926F927F927E
:1014A0008F929F92AF92BF92CF92DF92EF92FF9274
:1014B0000F931F93CF93DF93CDB7DEB7CA1BDB0B20
:1014C0000FB6F894DEBF0FBECDBF09942A883988C5
:1014D00048885F846E847D848C849B84AA84B984CC
:1014E000C884DF80EE80FD800C811B81AA81B981D8
:1014F000CE0FD11D0FB6F894DEBF0FBECDBFED01EC
:061500000895F894FFCFEE
:101506000000E801800000008B440B000C000A007C
:1015160000000000FE036A05800399038B03DC03C9
:101526000D0A006E616E00696E66006F7666002EAB
:021536000000B3
:00000001FF
