:100000000C9461000C947E000C947E000C947E0095
:100010000C947E000C947E000C947E000C947E0068
:100020000C947E000C947E000C947E000C947E0058
:100030000C947E000C947E000C947E000C947E0048
:100040000C9427010C947E000C947E000C947E008E
:100050000C947E000C947E000C947E000C947E0028
:100060000C947E000C947E00000000080002010049
:100070000003040700000000000000000000000171
:10008000020408102040800102040810200102042C
:100090000810204080400404040404040404020204
:1000A000020202020303030303030202030000002F
:1000B00000250028002B0000000000240027002A53
:1000C000000011241FBECFEFD8E0DEBFCDBF11E08E
:1000D000A0E0B1E0EAEEF6E002C005900D92AE318C
:1000E000B107D9F721E0AEE1B1E001C01D92A13323
:1000F000B207E1F70E94E1020C9473030C94000034
:1001000061E0809108010E94320261E08091040167
:100110000E94320261E0809106010C943202EF925B
:10012000FF920F931F93CF93DF9360910001709123
:10013000010180910201909103010E94F102FB01F3
:1001400070931F0160931E01CB0168EE73E00E9463
:100150004B037093210160932001CF0164E670E0AE
:100160000E944B03CB012AE030E0B9010E944B030F
:100170009093230180932201CF01B9010E944B0388
:10018000FC01CB01B9010E944B03909325018093A0
:100190002401F0932701E093260188E0E82E81E016
:1001A000F82E60E0F70180810E946B02E091260149
:1001B000F0912701EE0FFF1FE65FFE4F06E011E012
:1001C000C4E0D1E0208141E0F801608188810E9493
:1001D000A102E0912401F0912501EE0FFF1FE65FDF
:1001E000FE4F208141E0F801608188810E94A102D8
:1001F000E0912201F0912301EE0FFF1FE65FFE4F19
:10020000208141E0F801608188810E94A102E09193
:100210002001F0912101EE0FFF1FE65FFE4F2081CC
:1002200041E0F801608188810E94A10261E0F7014C
:1002300080810E946B0268EE73E080E090E0DF91C5
:10024000CF911F910F91FF90EF900C9494011F920A
:100250000F920FB60F9211242F933F938F939F937A
:10026000AF93BF938091290190912A01A0912B0116
:10027000B0912C013091280123E0230F2D3720F479
:100280000196A11DB11D05C026E8230F0296A11DF0
:10029000B11D209328018093290190932A01A093F6
:1002A0002B01B0932C0180912D0190912E01A091F2
:1002B0002F01B09130010196A11DB11D80932D0138
:1002C00090932E01A0932F01B0933001BF91AF9175
:1002D0009F918F913F912F910F900FBE0F901F9084
:1002E00018953FB7F89480912D0190912E01A0911F
:1002F0002F01B091300126B5A89B05C02F3F19F002
:100300000196A11DB11D3FBF6627782F892F9A2F17
:10031000620F711D811D911D42E0660F771F881FBE
:10032000991F4A95D1F708958F929F92AF92BF92ED
:10033000CF92DF92EF92FF926B017C010E947101DC
:100340004B015C01C114D104E104F104F1F00E94FD
:10035000F0020E947101681979098A099B09683EB7
:1003600073408105910570F321E0C21AD108E108BC
:10037000F10888EE880E83E0981EA11CB11CC11400
:10038000D104E104F10429F7DDCFFF90EF90DF9075
:10039000CF90BF90AF909F908F900895789484B540
:1003A000826084BD84B5816084BD85B5826085BD71
:1003B00085B5816085BDEEE6F0E080818160808357
:1003C000E1E8F0E01082808182608083808181603A
:1003D0008083E0E8F0E0808181608083E1EBF0E001
:1003E000808184608083E0EBF0E0808181608083A5
:1003F000EAE7F0E08081846080838081826080838E
:100400008081816080838081806880831092C100B8
:100410000895833081F028F4813099F08230A1F082
:1004200008958730A9F08830B9F08430D1F48091F4
:1004300080008F7D03C0809180008F778093800043
:10044000089584B58F7702C084B58F7D84BD0895EB
:100450008091B0008F7703C08091B0008F7D809332
:10046000B0000895CF93DF9390E0FC01E158FF4F77
:100470002491FC01EA56FF4F8491882349F190E0D2
:10048000880F991FFC01E954FF4FA591B491835542
:100490009F4FFC01C591D4919FB7611108C0F8949A
:1004A0008C91209582238C93888182230AC06230AC
:1004B00051F4F8948C91322F309583238C9388815A
:1004C000822B888304C0F8948C91822B8C939FBFDD
:1004D000DF91CF9108950F931F93CF93DF931F92D6
:1004E000CDB7DEB7282F30E0F901E859FF4F8491EE
:1004F000F901E158FF4F1491F901EA56FF4F0491B9
:100500000023C9F0882321F069830E9409026981D0
:10051000E02FF0E0EE0FFF1FE355FF4FA591B491E0
:100520009FB7F8948C91611103C01095812301C08D
:10053000812B8C939FBF0F90DF91CF911F910F91D3
:100540000895BF92CF92DF92EF92FF920F931F9385
:10055000CF93DF93C82ED62EB42EC7E0D0E0022F63
:1005600010E087E0E82EF12CB1100AC0F701EC1B77
:10057000FD0BB80102C075956795EA95E2F707C0D3
:10058000B8010C2E02C0759567950A94E2F7617068
:1005900077278C2D0E946B0261E08D2D0E946B02EB
:1005A00060E08D2D0E946B022197F0F6DF91CF91D4
:1005B0001F910F91FF90EF90DF90CF90BF90089523
:1005C00008950E94CE010E94E0020E948000C0E0D7
:1005D000D0E00E948F002097E1F30E940000F9CF45
:1005E000089504D06894B11150C0089533D088F0B4
:1005F0009F5790F0B92F9927B751A0F0D1F0660F0F
:10060000771F881F991F1AF0BA95C9F712C0B13029
:1006100081F03AD0B1E0089537C0672F782F88274E
:10062000B85F39F0B93FCCF3869577956795B39568
:10063000D9F73EF490958095709561957F4F8F4FD7
:100640009F4F089557FD9058440F551F59F05F3F35
:1006500071F04795880F97FB991F61F09F3F79F0E4
:1006600087950895121613061406551FF2CF469566
:10067000F1DF08C0161617061806991FF1CF8695E8
:100680007105610508940895E894BB2766277727CC
:10069000CB0197F9089597FB072E16F4009407D025
:1006A00077FD09D00E945F0307FC05D03EF49095CA
:1006B00081959F4F0895709561957F4F0895AA1B6E
:1006C000BB1B51E107C0AA1FBB1FA617B70710F03D
:1006D000A61BB70B881F991F5A95A9F7809590956F
:0A06E000BC01CD010895F894FFCF8E
:1006EA0000C08A440B000C000A00FF0F7C00DF1BCD
:0E06FA00FF153D1EF71DF71F7F00FF1FFF1DA0
:00000001FF
